:020000041000EA
:1000000000B5324B212058609868022188439860DF
:10001000D860186158612E4B002199600221596106
:100020000121F02299502B49196001219960352056
:1000300000F044F80222904214D00621196600F024
:1000400034F8196E01211966002018661A6600F04E
:100050002CF8196E196E196E052000F02FF8012189
:100060000842F9D1002199601B49196000215960AB
:100070001A491B48016001219960EB211966A021F2
:10008000196600F012F800219960164914480160C1
:100090000121996001BC002800D000471248134993
:1000A000086003C880F30888084703B5996A0420EC
:1000B0000142FBD001200142F8D103BD02B5186610
:1000C0001866FFF7F2FF186E186E02BD00000240BE
:1000D000000000180000070000035F00212200005C
:1000E000F4000018222000A00001001008ED00E03C
:1000F00000000000000000000000000074B24E7A12
:1001000000200420F7010010CB010010CD010010E9
:10011000C9010010C9010010C9010010C901001077
:10012000C9010010C9010010C9010010CF01001061
:10013000C9010010C9010010D1010010D301001045
:10014000C1010010C1010010C1010010C101001067
:10015000C1010010C1010010C1010010C101001057
:10016000C1010010C1010010C1010010C101001047
:10017000C1010010C1010010C1010010C101001037
:10018000C1010010C1010010C1010010C101001027
:10019000C1010010C1010010C1010010C101001017
:1001A000C1010010C1010010C1010010C101001007
:1001B000C1010010C1010010C1010010C1010010F7
:1001C000EFF30580103800BE00BE00BE00BE00BECA
:1001D00000BE00BEF2EB887190020010AC0200106D
:1001E0003802001090A31AE721482249086006C887
:1001F00081F30888104720480068002801D01C4877
:10020000F3E70DA40ECC002902D000F012F8F9E7B4
:100210001A491B4A002000E001C19142FCD1194952
:100220008847194988471949884700BEFDE701C931
:1002300001C29A42FBD37047AC020010C0000020FC
:10024000206A00200C6C0010206A00207C7F0020B7
:100250006881001000000420000004206881001064
:10026000001004200010042000000000704700006F
:100270000000000008ED00E0000000D07C7F0020BE
:10028000D0BA0020093B0020E5050020013B0020FA
:10029000947C0020A07C0020AC7C0020B87C002056
:0C02A000C47C0020D07C0020DC7C00200E
:1002AC00F8B5C0460448054B10B5834203D0044B47
:1002BC00002B00D0984710BD7C7F00207C7F002055
:1002CC000000000006480749091A8B10C90FC9180D
:1002DC0010B5491003D0044B002B00D0984710BD2B
:1002EC007C7F00207C7F00200000000010B5074CB4
:1002FC002378002B09D1FFF7D5FF054B002B02D03B
:10030C00044800E000BF0123237010BD00830020CF
:10031C0000000000206A0020054B10B5002B03D014
:10032C000449054800E000BFFFF7CCFF10BDC046F4
:10033C000000000004830020206A002030B583B048
:10034C0003F04AF80122214B214C1A60636C012BFB
:10035C00FCD103331F4D009301211F4A1F4802F0AB
:10036C00ABFF1F4802F0FAFF2B0001220121009580
:10037C00052002F00DFE2B00002200210095072025
:10038C0002F006FE2B00002200210095082002F04E
:10039C00FFFD042002F0EAFD062002F0E7FD092033
:1003AC0002F0E4FD002002F0E1FD012002F0DEFD90
:1003BC00022002F0DBFD032002F0D8FDA023094A45
:1003CC00E250094A0433E25003B030BD3CB0004067
:1003DC0000800040006CDC0200C0C62D00C0024052
:1003EC00008002401F9D89F007ECFFFFD9221E4BB5
:1003FC0010B5DB68D200013B9BB2934200D310BD19
:10040C00EFF3108472B601220421022001F00CFFDC
:10041C00A0220821520513680B431360F022134BE2
:10042C009A61134BEF3A1A60124A536C012BFCD1B0
:10043C00114802F093FF114802F090FF02F0E0FF28
:10044C0000220A4B08219A61A022520513688B43A3
:10045C0080211360F0230A4AC900D150FFF76EFFC8
:10046C0084F31088CBE7C04600C004400040004035
:10047C003CB00040008000400080024000C00240C0
:10048C0000400140F0B5D6464F464646C0B5344C08
:10049C00344EA5440700300001F084FA324907A815
:1004AC0001F07CFC002850D1002398462F4B304D96
:1004BC00994601AC02E0637A002B25D0210007A8F5
:1004CC0001F0C6FC00283DD10D236B442900180017
:1004DC0006F05EFA0028EED0237ADB06EBD401237B
:1004EC0043449A46434658000D23404480006B44D5
:1004FC0040441900484406F01DFB5346FF2B03D023
:10050C00637AD046002BD9D107A801F087FC002FC5
:10051C0006D001223900300001F092F9002816D1E2
:10052C00802301215B001293300012AB49423362ED
:10053C0001F052FA8923DB009D44E0BCBA46B14677
:10054C00A846F0BD07A801F069FC002FE1D10122FB
:10055C003000064901F074F90028E1D0EAE7C04602
:10056C00B8FBFFFF30A800208C79002090A9002058
:10057C005C790020F0B557464E464546DE46E0B560
:10058C00844F01253868844E030008339D4034683D
:10059C0087B063681D42FCD183009846A044434653
:1005AC001B6AF22B16D8CF2B29D8A02B2FD000D911
:1005BC00D7E0002B42D1794AD025126804210432AD
:1005CC009200135108222D06236B1A42FCD06B6843
:1005DC001942F9D043001B18DB00E418704B802241
:1005EC009C46802364441B06236023606D4B1A6079
:1005FC0007B0F0BCBB46B246A946A046F0BD1A00F7
:10060C00D03A222AE6D8684992008A5897460E2298
:10061C00C0000430E368C3401A42FBD04346196A59
:10062C001B6A0902C918614C200001F0D5F92000A1
:10063C005F4901F059F934683868CBE70822190092
:10064C0091431029C6D1C0221A40544B08259B4611
:10065C00574B01929846554B9946D0231B069A4608
:10066C005B4642461B68127804339B0012061A51F3
:10067C00019B002B6ED04146484601F035F9346899
:10068C00236B1D42FCD0534604225B681A42E7D010
:10069C004B4659694846023901F09EF94146484695
:1006AC0001F022F93468386894E701224149424844
:1006BC0001F096F8002869D0346838688AE70D2272
:1006CC00002102A803F0DEFA02AA0D21944661442F
:1006DC0063682B42FCD143461B6ADBB21370002BC0
:1006EC0002D001329142F3D102A8FFF7CBFE0028D1
:1006FC00E2D0D02580242D06A404FF20EC6102F06A
:10070C00E7FBFAE7254B2D4E1F6833780437082298
:10071C00BD00002B0FD031000B781B062B51236B27
:10072C001A42FCD001314B1E1B78002BF4D1737B89
:10073C000D36002BEFD1FF23D02508220421BF005A
:10074C001B063B512D06236B1A42FCD06B681942D9
:10075C00F9D03FE74B4659694846023901F03CF95C
:10076C0089E7A82B00D035E70F22C0000430E368DE
:10077C00C3401340022BFAD943464246196A1B6AFE
:10078C000904126A1B02C91889184CE70C48FFF7B8
:10079C0079FE91E7BCBA0020A0BA0020C0BA0020B4
:1007AC00D010000080E200E0D87A002030A80020B1
:1007BC00CCBA0020387A0020B084002090A9002008
:1007CC005C790020F0B5DE4657464E464546E0B50E
:1007DC0000228FB00121042001F002FD0022012132
:1007EC00022001F0FDFC00220121032001F0F8FCA5
:1007FC00022001F04DFD182001F04AFD192001F0F6
:10080C0047FDD0248026802324069B047604A66210
:10081C00A025636204230127A3626D0505F03CFF4C
:10082C002B68BB432B606368334200D038E1EFF395
:10083C00108472B604213A00022001F0F5FC082362
:10084C002A681343F0222B60994B9A61994B9A4A70
:10085C001F60536C012BFCD1984802F07FFD984827
:10086C0002F07CFD02F0CCFD0022914B08219A6134
:10087C00A022520513688B4380211360F023914A08
:10088C00C900D150FFF75AFD84F3108806F062F8C6
:10089C001F211D2001F08AFC002200211D2001F0E7
:1008AC009FFC00211D2001F0DFFCC023864C9B0126
:1008BC00226816205340E022D2011340834A844917
:1008CC001360844B1A68844B5340844A1340844A07
:1008DC00136001F0F1FD01230121A361162099465B
:1008EC0001F0D8FDFF21162001F00AFF08227D4BF4
:1008FC007D4E23617D4B7E481A600121306005F0EE
:10090C00E3FE7C4D01212860306805F0DDFE7A4B5A
:10091C00346818602B6807009B46784B0320E51859
:10092C002D0D0635EDB2290001F040FC2900042004
:10093C0001F03CFC2900022001F038FC01210320CD
:10094C0001F062FC6E49200005F0DAFE80235B02A8
:10095C00029303000B33C2011B031343694A804605
:10096C001340C022D20513430393C0231B030493EB
:10097C0080230022DB0592465946059300920323FF
:10098C000432200005F03EFF8020039B5E4980046A
:10099C000B400343059A03935C4B02AD1A405C4B2E
:1009AC005946134305932A895A4B20001343049349
:1009BC0042462B0005F080FF5749200005F0A0FEB1
:1009CC005246F823099280225B0252020692079348
:1009DC00C02305001B03089306AB19000AAB1022B9
:1009EC00180003F055F92B1DEA011B0313430B935D
:1009FC000AAB190006AB1022180003F049F9534654
:100A0C000422390000932000033305F0FBFE802004
:100A1C00079B3D4980040B400343099A07933F4BC6
:100A2C0039001A40C0235B0213430993089A3C4BCC
:100A3C0020001A403B4B134308932A0006AB05F0E9
:100A4C003BFF59464B468B402268072013432360DB
:100A5C004B46BB40226834491343236001F02CFD04
:100A6C000121072001F016FD304A3368944602221A
:100A7C0063441A600021072001F042FE002100208F
:100A8C0005F0ACFA01222A492A4800F0A9FE0028F8
:100A9C0009D030BF01200021404203F09FFCF8E751
:100AAC00FFF74CFCF2E62448FFF7ECFCF1E7C046FC
:100ABC00004000403CB000400080004000800240FC
:100ACC0000C002400040014000C0044000D004407F
:100ADC000D02002008C00440050000010F00000FAB
:100AEC0008D0044000FFFF00A0BA002000E0044042
:100AFC0000002050C0BA0020BCBA00200000E0AFBB
:100B0C00787B0020FFFFFF9FFFFFFFE0E00300FC6E
:100B1C00030C120000001050647B0020FF7FF0FFDC
:100B2C00FFFF0A3E00008180950300202C2100006D
:100B3C00387A0020B08400205C79002010B50029A0
:100B4C0001D0002A00D110BD0D220449002004F070
:100B5C00F7FA002004F0BAFAF5E7C04668790020ED
:100B6C00F0B5C64600B5204B060098461F4D204FE9
:100B7C0082B004E000232B60002004F0A7FA0020D0
:100B8C0004F050FA002825D06B4601223000D91D04
:100B9C0004F052FA002825D06B46DC796B46012212
:100BAC00DC71D91D002004F0CBFA2B685A1CFB5CBD
:100BBC002A60A342DED1052ADED141460D48043A13
:100BCC0000F00EFE002809D006220B49002004F08C
:100BDC00B7FACFE702B080BCB846F0BD0748FFF7C4
:100BEC0051FCF1E7FF24D9E7387A002098BA0020AD
:100BFC0080790020B0840020787900205C79002076
:100C0C0070B51C000E4B86B002930023150004AE89
:100C1C0008000C4A02A90B7133710B4B049204228D
:100C2C00019303F035F831000422280003F030F86A
:100C3C000322200001A903F02BF806B070BDC046BA
:100C4C00415A594150494D50312E3000074B10B587
:100C5C001B7804000120002B00D110BD00233A2288
:100C6C000221200004F0E8FC0020F6E7CABA0020BC
:100C7C00EA235B000B6080235B0113807047C04646
:100C8C00002B01D0002A01D001207047014B01320A
:100C9C001A70F9E7CABA00201800054B10B59C462B
:100CAC00614409038918029A02F0F2FF029810BD00
:100CBC0020000100F8B50C0015001E00EFF31087A2
:100CCC0072B620342403002A08D03100069A281961
:100CDC0006F084FE87F310880698F8BD802120006A
:100CEC00490106F033FEF0E710B50A781C0000232A
:100CFC001E2A04D02022052104F09EFC230018009B
:100D0C0010BDC04600487047007C0020004870476A
:100D1C009C7B002070B500250400280005F09EFC8B
:100D2C00174BDD60002C21D0052C27D8A400E558EA
:100D3C00280005F0D1FEC0B2041C1F2814D8C02610
:100D4C00E4B2631CDBB25B00B6001E43002808D083
:100D5C0000230C4AE95C01331180D9B202328C4277
:100D6C00F8D80948068070BD1F24E8E7C126022286
:100D7C000448196802F08CFFB600F2E70020F2E795
:100D8C006C7E002082960020809600200020704708
:100D9C000020704710B514001A03044B08009C4641
:100DAC006444210302F074FF002010BD20000100F8
:100DBC0070B501260023764204000D00C370466214
:100DCC004B1C3FD1274BE25CE3185B781B021343AF
:100DDC00254A934241D12823E25C13001833DBB23D
:100DEC00012B03D90220EB2A00D070BD5E23E35CFB
:100DFC00462B08D11933E35C412B04D11F33E35C40
:100E0C000020542BF1D07A23E35C18004638462B93
:100E1C0014D13533E35C18004138412B0ED13B33F0
:100E2C00E35C18005438542B08D12933E35C1800C8
:100E3C003338332B02D14B33E05C3238431E9841AC
:100E4C004000D2E70A002100012340782831FFF747
:100E5C00A1FF002803D16562B4E70320C5E7042095
:100E6C006662C2E72602000055AA0000F0B54546AE
:100E7C00DE4657464E460023E0B50568040083B0B5
:100E8C000B60002D00D196E12A0002E03A2B00D134
:100E9C00E8E013780132202BF8D8C84B1C68002CE2
:100EAC0000D139E123780C60002B05D06078FFF776
:100EBC006DFFC00700D4B3E0002300202380FFF7B0
:100ECC0067FFC00700D5ADE000212000FFF770FFE1
:100EDC00022800D1CFE0042800D128E10026012807
:100EEC0000D9BDE023008022333319785B7852019E
:100EFC001B020B43934200D0B2E03F223E23A55C81
:100F0C00E35C2D021D430DD14C230E32A25CE35C3D
:100F1C0012021A434E23E35C1B0413434F22A55CBD
:100F2C002D061D4338232561E75C7B1EA770012B22
:100F3C0000D995E03523E35C98466381002B00D102
:100F4C008EE04246013B1A4200D089E0230039333F
:100F5C001A785B781B021343994623815B0600D0F9
:100F6C007EE023003B331A785B781B0213430DD1D0
:100F7C004833E25C0133E35C1B0213434A22A25C5C
:100F8C0012041A434B23E35C1B0613433622A15C69
:100F9C000132A25C12020A43924661D039004A46E1
:100FAC006943D209524493468C46E34401919B45D4
:100FBC0056D85A469B1A414618001F0002F058FB9F
:100FCC0047454DD37E4B98424AD85B46F118534661
:100FDC007C4F821CF318B84200D9CCE07A4F2162C6
:100FEC00E26049466661A361B84200D9BBE00029C2
:100FFC0036D00199CF18012153009B185B080A4089
:10100C009A1801237149E7618C466244120B954290
:10101C0026D36F4A2370138801339BB21380E3806D
:10102C00002000E0032003B0F0BCBB46B246A9464A
:10103C00A046F0BD674A674BA1184A78E35C1202E0
:10104C001A438B78CE781B04134336061E43002DAF
:10105C0077D14346002B7DD1002F6AD1002E5DD174
:10106C000D20E0E72B780B20302BDCD10235AA4287
:10107C00D9D1226011E7F5235B00E35C0025002B3E
:10108C000ED02100F723EF31FF314A785B00E35C8F
:10109C0012021A438B78CD781B0413432D061D4383
:1010AC00FD2300225B00E35C9046002B0FD0210057
:1010BC00FF23FF31FF314A785B00E35C12021A43D5
:1010CC008B781B041343CA7812061A439046424B82
:1010DC000027E35C002B0CD0404A404BA1184A7807
:1010EC00E35C12021A438B78CF781B0413433F0640
:1010FC001F433B4BE35C002B9CD1002D20D143467E
:10110C00002B26D1002FABD039002000FFF750FE6A
:10111C000128A5D83E00E5E60C2084E7310020002C
:10112C00FFF746FE012800D8DCE6042898D1012000
:10113C0079E739002000FFF73BFE01288ED8E9E75C
:10114C00002629002000FFF733FE012881D82E004D
:10115C00C8E6002641462000FFF72AFE012800D9E8
:10116C007AE74646BEE6002900D179E7019952009C
:10117C00CF18022346E7A3615223E2606661216225
:10118C00E15C230052335B781B020B434946194345
:10119C0000D065E755215423615CE35C09021943D7
:1011AC005623E35C92001B040B435721675C3F06FC
:1011BC001F43032326E70B2035E7C046D8940020B5
:1011CC00F5FFFF0FF5FF0000F50F0000FF0F00000B
:1011DC00C4BA00201E0200000A0200000E02000029
:1011EC001A020000F0B5C64605000C00012000B53F
:1011FC00012926D9EB68994223D22B78022B3ED0B9
:10120C00032B21D0012B1CD14E08AA697618370B61
:10121C006B6ABF189F4259D1771C390B884636052B
:10122C00360DAE1928369044367898455BD13F057B
:10123C003F0DEF192837387800023043E4075ED5AC
:10124C00000980BCB846F0BDAB698E0AF6186B6A13
:10125C009E4230D12D4B2922A4001C4028232C194E
:10126C00A25CE35C12021A432A23E35C1B041343C3
:10127C002B22A05C0006184300010009E1E7AB69D2
:10128C00CE0AF6186B6A9E420AD1214B29226400C1
:10129C001C4028232C19A05CE35C00021843D0E707
:1012AC0029000123320068782831FFF773FD0028EC
:1012BC0028D16E62E9E729000123320068782831D1
:1012CC00FFF768FD00281DD16E62C3E729000123DA
:1012DC003A0068782831FFF75DFD002812D13B00F9
:1012EC00AA696F6298E72900012342466878283181
:1012FC00FFF750FD002805D143466B6297E70005C8
:10130C00000D9EE70120404268629AE7FC0F000046
:10131C00FE0F0000F0B500234F464646D6468468C3
:10132C00C0B5060007680361002C12D13B78022B74
:10133C000BD83B89002B48D0FB69B3617461002B3F
:10134C0043D028370020F76140E0FB69002BF0D038
:10135C001C007A89002A00D0A8E0012C35D03D0071
:10136C00EB68A34231D92B78022B56D0032B32D009
:10137C00012B2AD163089846A04443461B0B99467F
:10138C00A9696A6A8944914568D101234344994605
:10139C0043461B051B0DEB1828331B7898464B4610
:1013AC001B0B9A468A44924549D14B4642461B0533
:1013BC001B0DEB1828331B781B021343E4074AD58B
:1013CC001C0923E000237461B3610220E0BCBA461F
:1013DC00B146A846F0BDA30A9846AA696B6A904428
:1013EC00984549D1384B2922A4001C4028232C199C
:1013FC00A25CE35C12021A432A23E35C1B04134332
:10140C002B22A45C24061C4324012409012CDCD9C6
:10141C00FB68A342D9D93568A2E7E30A9846AA69C2
:10142C006B6A9044984535D1284B64001C402922A6
:10143C0028232C19E35CA45C24021C43E6E7290056
:10144C000123524668782831FFF7A4FC00281CD1F0
:10145C0053466B62A9E71B051C0DD7E72900012336
:10146C004A4668782831FFF795FC00280DD14B4689
:10147C004A46A9696B6288E72900012342466878CD
:10148C002831FFF787FC00281AD001235B4201208A
:10149C006B629BE729000123424668782831FFF7ED
:1014AC0079FC0028F1D143466B62BDE7F968A31EB5
:1014BC0002398B4200D385E753433A6A9B183CE7C9
:1014CC0043466B628EE7C046FC0F0000FE0F000027
:1014DC00F0B55746DE464E4645460368E0B5040077
:1014EC000F00190087B03B782F2B01D05C2B01D15A
:1014FC000137F8E7202294460023A4446246A360F7
:10150C003B7804921F2B00D85FE1B34B9A463F23E4
:10151C009B4653468A46059320232122E354A35429
:10152C000132A3540132A3540132A3540132A35407
:10153C000132A3540132A3540132A3540132A354F7
:10154C000132A3543B78202B0CD97A1E0025082697
:10155C00012094462F2B62D05C2B60D02E2B1AD0FE
:10156C00B54207D3062007B0F0BCBB46B246A9462D
:10157C00A046F0BD5AB2002A03DA7F221340059A26
:10158C00D35C2222954903E04A780131002A3CD0F1
:10159C009342F9D1E6E70B2EE4D008250B266346DF
:1015AC0001301B5C202BD5D82022A15C3F18E529EB
:1015BC0000D102E100222021994252412B259200B8
:1015CC006255236820009846FFF7A4FE002800D03F
:1015DC00E7E0282343440093082399465346A66921
:1015EC000293039743465B6AB3422AD043463200C8
:1015FC00587800990123FFF7CDFB00281FD0012359
:10160C0042465B4201205362ADE71A00613A192A47
:10161C0001D8203BDBB2049A53550135BFE738188B
:10162C00027807002F2A01D05C2A01D10130F7E79C
:10163C00002D97D02022A15CE529BBD1BDE043460B
:10164C005E62E3691A78002A12D05A4648464D4623
:10165C00D97A0A40A271DA7A1040154222D080233E
:10166C002569276820359B039D4205D30023A36180
:10167C0004202B23E35C95E0A669002EF8D02B0503
:10168C001A0D9246002B08D161690136A66100291A
:10169C0061D13A896B0993427AD228375744256134
:1016AC00E7619FE72022A55C1A789542D7D12122C9
:1016BC005D78A25C9542D2D122229D78A25C9542A3
:1016CC00CDD12322DD78A25C9542C8D124221D798C
:1016DC00A25C9542C3D125225D79A25C9542BED114
:1016EC0026229D79A25C9542B9D12722DD79A25C94
:1016FC009542B4D128221D7AA25C9542AFD1292201
:10170C005D7AA25C9542AAD19A7A2A23E35C9A422A
:10171C00A5D1029B039F9A462B23E35C5B0700D564
:10172C0021E7C9063BD55346226928331205120D11
:10173C009B18DA7E997E12020A43514609780329D6
:10174C0001D0A260E8E6197D5B7D1B020B431B04F4
:10175C001A43A260E0E62A0B10007B89013B18407B
:10176C0001901A4299D13800FFF73CFD012822D98B
:10177C00431C1ED0FB68984222D26061023B0238A7
:10178C00984213D27B893E6A58438619A66184E736
:10179C002B23A161E35C04205B0700D5E3E6052065
:1017AC00E1E6635D042800D0DDE6F4E70026A661DF
:1017BC0073E701205DE702205BE7E039A154F9E60D
:1017CC00019BA3612B23E35CE5E72B238022200004
:1017DC00E254FFF79FFDC6E6147C0020B079002090
:1017EC0030B583B00D1E0190009125D00C0001E0A6
:1017FC003A2B19D023780134202BF9D80F490B68D8
:10180C00002B01D000201870019B002B01D0002070
:10181C00187000200B60002A01D103B030BD68465F
:10182C0001A9FFF723FBF8E72B780B20302BF4D121
:10183C000235AC42F1D1E1E70B20EEE7D894002061
:10184C00F0B58FB0040015000191002845D002A915
:10185C0001A8FFF70BFB002803D0002323600FB077
:10186C00F0BD029E019903A80396FFF731FE0028F4
:10187C00F3D16A460C212B235218D35C7F2B2ED824
:10188C0010226B4610009B7C18401A4229D10A9BEF
:10189C00DA7E997E12020A433178032905D1597DEB
:1018AC001F7D0902394309040A43A260597F1A7F3C
:1018BC00090211439A7FDB7F12040A431B06134370
:1018CC00E360002326602362F2886374A280012205
:1018DC002A402274E3616361C1E70920BFE7062057
:1018EC00BBE70420B9E7C046F8B557464546DE4687
:1018FC004E464369C268E0B504000D0007689A4281
:10190C0024D01A05110D8846002A11D0C069244B29
:10191C009C46434660440003C35C2B7063690133EF
:10192C0000206361F0BCBB46B246A946A046F8BD98
:10193C00180B01007A899146013A11408A461042EF
:10194C0009D1002B11D1A068A06105E0FF230B7019
:10195C0043690133E4E7A0694B460238434318005E
:10196C003B6A5344C018E061D1E7236A49469B4661
:10197C001E1D01F07DFE5B465B68002B05D10AE065
:10198C000836C01A3368002B05D09842F8D2736819
:10199C00C018A061E0E7022302206374C2E7C046CE
:1019AC002030010010B5041E09D00368002B06D0AE
:1019BC001A78002A03D08188DA88914201D0092054
:1019CC0010BD5878FFF7E2F901220300100018400F
:1019DC001A42F4D12060F3E7F0B55746DE464E4686
:1019EC004546E0B504000F0087B0002809D0036815
:1019FC00002B06D01A78002A03D08188DA8891420D
:101A0C0008D00926300007B0F0BCBB46B246A94648
:101A1C00A046F0BD5878FFF7B9F9C007F1D4667C41
:101A2C00002EEFD12368256A9846002D24D07B1C0C
:101A3C0055D0E3689946BB4200D9B9464B46636121
:101A4C00002BDFD0013B1B0B9A4643465B8950466B
:101A5C0019009B4601F00CFE6B682F1D002B05D165
:101A6C0050E00837C01A3B68002B4BD08342F8D9A2
:101A7C007B68C3189A1E47E0E568BD4200D93D005B
:101A8C00002360696361002DBCD043465F893F032E
:101A9C00002855D1A168A1610029B3D00023AF4221
:101AAC0000D36BE132004046464690460BE00128DD
:101ABC001DD9F36883421AD96369A0611800AF423B
:101ACC0000D337E12068FB186361FFF78BFBED1B3C
:101ADC000100431CEBD101230126637492E72B0018
:101AEC0004CB9246A268002A05D0012A42D10223D7
:101AFC000226637486E702212960514538D80022FA
:101B0C001A607FE702225242A3614346DB68023B24
:101B1C009342ECD95B465A4343461B6AD218002ABF
:101B2C00E5D04B461B0500D16CE75B465146013BAB
:101B3C0019408B18E2699A4200D163E7E36161E7CF
:101B4C00431E3900681E994601F092FD3900824609
:101B5C00484601F08DFD82459CD34A467B42A169E3
:101B6C001A4013006261AD1A002900D14AE796E7CA
:101B7C00112647E703935346C3460221029343467B
:101B8C00059690465E46270001910493292345460D
:101B9C0001249A46C3464EE03378022B7ED0032BA9
:101BAC0051D0012B4AD16B089946A9444B461B0BCB
:101BBC009846B169726A884490450DD03100012372
:101BCC00424670782831FFF7E5F8002800D085E010
:101BDC0043464246B169736201234B4498464B46D7
:101BEC001B051B0DF31828331B78009343461B0B66
:101BFC009946894491450AD0310001234A467078B0
:101C0C002831FFF7C7F8002868D14B46736243466A
:101C1C001B051B0DF31828331A78009B12021A436C
:101C2C00EB0774D513091F2A08D901359D425AD1E7
:101C3C001D003E680134F368AB42ADD83C00022372
:101C4C0002266374DEE6AB0A9846B269736A904466
:101C5C0098450AD031000123424670782831FFF7AD
:101C6C0099F800283AD143467362494AAB001340B5
:101C7C002822F318995C52469A5C12020A432A21D4
:101C8C00595C090411432B229A5C12060A43414900
:101C9C0013011B090A42C8D13C00D0E7EB0A984655
:101CAC00B269736A904498450AD0310001234246C8
:101CBC0070782831FFF76EF800280FD14346736215
:101CCC00354A6B00134051462822F3189A5C5B5C32
:101CDC001B021343012BA8D83C00B0E701235B4245
:101CEC003C007362F7E6019A02990232019291422A
:101CFC0014D35946039A150014605160049A0835A0
:101D0C00D2689A423CD9039598463E683EE72249F0
:101D1C0013051B0D0A4288D13C0090E7049AD26847
:101D2C009A42F1D83C00029A039B92460199059E77
:101D3C00256AE1E64346B0461E0028182A05606174
:101D4C00130D002A11D04346DB680239023B99423D
:101D5C0000D3CCE643465B89594343461B6ACB18F8
:101D6C00002B00D1C3E62D0BEB18000500D149E682
:101D7C00E2699A4200D145E6E36143E66069DCE73B
:101D8C003C00029B01999A46059E2B00256AB3E6FE
:101D9C00FC0F0000FEFFFF0FFE0F000030B585B0FA
:101DAC00041E01912FD003A901A8FFF75FF80028AA
:101DBC0003D00023236005B030BD039D20000199A2
:101DCC002560FFF785FB002819D12B23E35C7F2BC3
:101DDC000BD8A379DB0614D5E269D37E917E1B0266
:101DEC000B432978032910D0A360EB882000A38033
:101DFC00FFF790FA042804D00028DCD0D9E7042897
:101E0C00D7D10520D5E70920D5E7117D527D1202E7
:101E1C000A4312041343A360E7E7C04610B5041E3F
:101E2C0009D00368002B06D01A78002A03D08188C9
:101E3C00DA88914201D0092010BD5878FEF7A6FF30
:101E4C0001220300100018401A42F4D12060F3E77D
:101E5C00F0B54E46DE4657464546E0B50400894689
:101E6C0083B0002809D00368002B06D01A78002A0A
:101E7C0003D08188DA88914209D009239B465846C1
:101E8C0003B0F0BCBB46B246A946A046F0BD58789C
:101E9C00FEF77CFF01231A00024093460342ECD16B
:101EAC004B46002B00D154E12368A6699846002EBE
:101EBC0000D172E12823434400933F239A464346C2
:101ECC005B6AB34213D04346320058780099012321
:101EDC00FEF760FF002808D0012342465B425362A4
:101EEC000023A36101239B46C9E743465E62E36975
:101EFC001A78002A00D131E15146DB7A0B40A371EC
:101F0C00E52A07D02E2A05D00F2B03D0202293438D
:101F1C00082B30D1236980221D00203527689203BD
:101F2C0095420CD3203300221D004B46A2615A72FD
:101F3C0080239B039D42A2D30023A3619FE7A66944
:101F4C00002EEFD02B051A0D002B04D02837BF180C
:101F5C002561E761B3E761690136A661002900D00C
:101F6C00D5E03A896B09934200D3EEE0283725611E
:101F7C00E761002EA3D100234A462569A1692035CB
:101F8C0053720029D4D0E3691A78202A00D102E1D7
:101F9C00052A00D1E0324846427201205E780200E8
:101FAC00202E05D0052E00D1E036421C4844467246
:101FBC009E781000202E05D0052E00D1E036501C46
:101FCC004A445672DE780200202E05D0052E00D130
:101FDC00E036421C484446721E791000202E05D073
:101FEC00052E00D1E036501C4A4456725E79020030
:101FFC00202E05D0052E00D1E036421C48444672F6
:10200C009E791000202E05D0052E00D1E036501CF4
:10201C004A445672DE790200202E05D0052E00D1DE
:10202C00E036421C484446721E7A202E0AD0052EF9
:10203C0000D1E0364F462E20BF187872501C484411
:10204C00023246725E7A1000202E05D0052E00D189
:10205C00E036501C4A4456729E7A0200202E05D05F
:10206C00052E00D1E036421C4844467200204A44FA
:10207C0050724846DA7A02725A7F187F1202024373
:10208C00987F266800041043DA7F12060243484604
:10209C000260DA7D987D120202434846C2801A7EA5
:1020AC005B7E1B021343838080239B039D4200D3E2
:1020BC0042E72B051F0D002B24D10131A161616971
:1020CC0000294DD02A0B10007389013B1840804623
:1020DC001A4217D13000FFF785F8012862D9431C4A
:1020EC0000D1FFE6F368984200D325E76061023B1C
:1020FC000238984204D2738958438046336A984414
:10210C004346A3612836F6192561E661B7E62A0B2A
:10211C0010007B89013B184001901A4200D025E742
:10212C003800FFF75FF801282BD9431C26D0FB6839
:10213C00984229D26061023B0238984215D27B89C1
:10214C003E6A58438619A66110E74B46A161597245
:10215C0095E62000FFF7DEF8834690E62369E1E67A
:10216C0032896B099342CDD3E6E64A46019B283768
:10217C002561A361E76120355372D9E601239B46A3
:10218C00DAE602239B46D7E64A46019B2569A36102
:10219C0020355372CCE6002000E74B4625695A7275
:1021AC002035C5E602239B4669E6C046094A8300F2
:1021BC009A1810B514684022544080322240064CC4
:1021CC00C000A44663441A60044B9C4660444160C2
:1021DC0010BDC04604C0014004D001400040014085
:1021EC00074B8000C3181B68C90092000A435A4071
:1021FC000C231340034A9446604403607047C04666
:10220C0004C0014004D00140054B8000C3181B687A
:10221C004B4001211940034B9C46604401607047C0
:10222C0004C0014004D00140C30810B504000720CD
:10223C002040800081401800084C3C308000015147
:10224C009B00002A04D0064A94466344196010BDD2
:10225C00044A944663441960F9E7C04600400140C3
:10226C0060610140607101408000002905D0064B7F
:10227C009C464023604403607047044B9C464023BB
:10228C0060440360F8E7C04604E0014004F00140FC
:10229C000123D0228340120693629361094A830082
:1022AC009A1811684022514080320A400649C000F9
:1022BC008C4663441A60054B9C460523604443607E
:1022CC007047C04604C0014004D0014000400140AA
:1022DC008023DB051868000F7047C0460FB400B5AB
:1022EC00084883B001F034FE049B002B07D005A9ED
:1022FC001800019101F0DAFC034801F029FE0120DD
:10230C0001F0ECFCC079002074790020EFF3108010
:10231C0072B6034A1368002BFCD0BFF35F8F704773
:10232C002C0100D0BFF35F8F0022024B1A6080F3A8
:10233C00108870472C0100D070B5EFF3108C72B67A
:10234C000D4D2B68002BFCD0BFF35F8F0724CB08FF
:10235C00C618C05C01230C40A3401C00044003427F
:10236C0007D118433070BFF35F8F2C608CF310884B
:10237C0070BD1000FFF7B2FF2C0100D0F8B5474636
:10238C00CE46884680B5EFF3108C72B6214D2C6882
:10239C00002CFCD0BFF35F8F9A422CD8D4080727AF
:1023AC00055D061901241740BC402C421FD00721A3
:1023BC000127894609E0D408055D06194C46390009
:1023CC001440A1400C00294211D001329342F2D2A8
:1023DC0001204042BFF35F8F00220E4B1A608CF33A
:1023EC00108800280FDBC0BCB946B046F8BD2543A9
:1023FC0010003570EEE7BFF35F8F00232B608CF37A
:10240C001088012040424346002BECD00898FFF77F
:10241C0065FFC0462C0100D0044A1078431CDBB287
:10242C00172B00D9102313707047C046847E0020F0
:10243C0010B5064B064C82B00100009318221F23E6
:10244C002000FFF79BFF02B010BDC046D0790020E2
:10245C0054A900200021044B044ABFF35F8F02C330
:10246C009342FAD17047C046000100D0800100D0E1
:10247C00054B064A1360064A136053609360D360A1
:10248C0013615361936170478080808000E400E0A9
:10249C0004E400E01F2318401E3B8340002905D0B4
:1024AC00C021044A490053501360704780220149EF
:1024BC008B50FAE700E100E070B50D00EFF31086E9
:1024CC0072B60F4A1368002BFCD0BFF35F8F0D4B15
:1024DC0010309B6884001B590B4A934203D09D42D9
:1024EC0001D000F09BFF074B9B681D51BFF35F8F22
:1024FC00BFF35F8F0022024B1A6086F3108870BD09
:10250C00240100D000ED00E0C1010010F0B55746E9
:10251C004E46DE464546E0B585B0060000911700F4
:10252C00EFF3108B72B66A4A1368002BFCD0BFF322
:10253C005F8F0025674B5D579A46002D00DAA9E0A6
:10254C006B00654C01935B199B009846A146C144F6
:10255C004B4652469B7910361370604BB6009B6805
:10256C0099590B1B2F2B33D95D4B994200D0ACE002
:10257C00019B42469C465B4B6544AD0063535A4BF2
:10258C000232A218043B9B1A1B05584A5B0D6519B5
:10259C0013436B80564B0121AB80FF23AB71009B27
:1025AC00EF71AB604B460B4319004C4B9B68995138
:1025BC00BFF35F8FBFF35F8F0022454B1A608BF325
:1025CC00108805B0F0BCBB46B246A946A046F0BD8B
:1025DC0001200A008243D3798C46BB4231D8454650
:1025EC00130044491B1B5B415943090D3D4B63537D
:1025FC003D4B02356519043B5B1B1B053B4D5B0DCD
:10260C002B43AA464D466B800425AC465546E04408
:10261C00131F44441B1B1B055B0D1D434B4699713B
:10262C0000999D8099604946DF71334B01431360DB
:10263C00BBE75800C01880002018C179B9422FD9C7
:10264C0002000623D356002BF3DA02932B4B614680
:10265C000393131D9A4604235B429C46E144504667
:10266C004B461B1A1B055B0D9C46204B95719846DF
:10267C006346404603439380019B5A199200039B87
:10268C00A418A380029B1C4AA371009B2260E771D3
:10269C00A3608AE700F0C2FE002553465D574FE762
:1026AC00908802934005131D9A46031561469C467B
:1026BC004046D444634604302018181AE023000521
:1026CC00400D1B0218430390C5E700F0A7FE4FE72F
:1026DC00240100D0CBBA0020887E002000ED00E061
:1026EC00C101001000A1FFFFB87E002000E0FFFF39
:1026FC0001BDFFFFAAAA00000148804701BD0000F0
:10270C0010B58308040003202040FF24054AC000B4
:10271C009446844081409B0063441A68A2430A4358
:10272C001A6010BD00E400E070B501240443EFF31F
:10273C000581EFF3108C72B6214A1368002BFCD084
:10274C00BFF35F8F1F4B05001F4AED1A6D416A43A3
:10275C00120D1E4D8900AE6852B27658A6421CD09E
:10276C000621595691421CD012215956914222D021
:10277C001E215956914220D02A21595603249142A8
:10278C0010D0134B19781A708171BFF35F8F002230
:10279C000B4B1A608CF3108870BDAB680D4C5C5001
:1027AC00EFE700246100091989005B18FF2199717A
:1027BC0009499980E5E70124F4E70224F2E7C046D1
:1027CC00240100D0887E0020AAAA000000ED00E0C1
:1027DC00CBBA0020C101001001BDFFFF024B9C468B
:1027EC0061448900016070474000003470B5114CA1
:1027FC00114DAC420FD2FF262368002B0CD0FFF7F3
:10280C000BFE01002000FFF7E9FFA680BFF35F8FEE
:10281C000834AC42F0D370BDFFF7FEFD0100200080
:10282C00FFF7DCFF2671BFF35F8F0834AC42E3D3B4
:10283C00F1E7C046307F0020387F002010B504003F
:10284C00FFF7EAFD01002000FFF7C8FFFF2323710B
:10285C00BFF35F8F10BDC04610B504000120FFF719
:10286C00E7FD034BC3189B002360BFF35F8F10BDC4
:10287C00400000340A4B1968EFF3108072B60A68F6
:10288C00002AFCD0BFF35F8F1B68BFF35F8F002261
:10289C001A6080F3108840BF002000217047C046AA
:1028AC00B8BA0020F0B5DE4657464E464546E0B570
:1028BC0083B0EFF3058203231340B54A99005258B5
:1028CC000091904601229A409346B24B1A60B24B4B
:1028DC0001935B46B1484363434608229B5E99468D
:1028EC00002B3ADA43469B881BB2002B00DB9DE0A1
:1028FC0043469B79002B00D0E1E0434608241C5F43
:10290C00002C20DB43465A6963001B19DB00D318EB
:10291C009D68DC686B1C00D103E1A04800998446DB
:10292C006144826A0B69AE1A9B1A9E4213D35A46B3
:10293C00036A1A420FD0994800F0B8FA8C4202DCB4
:10294C00C7D18542C5D940BF03B0F0BCBB46B24627
:10295C00A946A046F0BD0D61EDE7424652695B0009
:10296C0092464B44DB009A4453469E68DF6800F065
:10297C009DFA8F42B6DC00D1F8E0002F00DAD9E0E6
:10298C005246534654691B69019A934200D1CCE0DC
:10299C00414652460820085E52880004210010432C
:1029AC00984704000D0023002B4300D1C2E0002DFA
:1029BC0000DBDFE030003900001BA9415346986072
:1029CC00D96000229A5E002A00DA8BE743465D69E3
:1029DC0053009C18E4002C19A768E4688C4200DDB5
:1029EC0080E702D1874200D97CE74646328108361F
:1029FC000DE08C4200D1C6E01E000023F25E002ADE
:102A0C000ADB53009C18E4002C19A768E4689B1897
:102A1C00DB00EB188C42ECDD53461A804B463380BE
:102A2C0043469B881BB2002B00DA61E743461A69C8
:102A3C00EFF3108172B61368002BFCD0BFF35F8FDD
:102A4C0043469E88012342465B42938036B213690B
:102A5C00BFF35F8F00221A6081F31088002E00DA1A
:102A6C0046E743465D69083342469C467700BF19EA
:102A7C00FF00EF19BB68604698460823D15E92466A
:102A8C00FC68002907DA0EE0A24246D018000023A9
:102A9C00C15E002906DB4B005B18DB00EB18DA6823
:102AAC00A242F1DD524606800023FE5E3980002EE4
:102ABC00DCDA904643469B79002B00D11DE70023BE
:102ACC0042469371434646460821595E08364B1CD4
:102ADC0000D138E747468946556902E006004B1C91
:102AEC0018D04B005B18DB00E8180A008C46E95E36
:102AFC0043881BB2002BF1DA01235B42DC178360A5
:102B0C00C4604A4503D031803B8903803A81E14659
:102B1C004B1CE6D1B8464C46F2E69A684245B5D90C
:102B2C00C0E7631C00D0F8E605E72000236998474E
:102B3C00002825D1534642461B8813811269EFF3B6
:102B4C00108372B611680029FCD0BFF35F8F424628
:102B5C00514652880A804246494651801269BFF359
:102B6C005F8F0021116083F31088BBE6864200D88A
:102B7C0003E7B7E6094800F099F9001969411DE728
:102B8C00656824680FE7874200D835E744E7C046FC
:102B9C00A4BA00203C700540C5260020004005402A
:102BAC0070B52E4C2569002D04D00A212C48FFF756
:102BBC0015FE70BD2B4E0321300000F06DF9E66060
:102BCC00FFF72AFC284B03229C46D02322701B06BD
:102BDC001B6801216370254B6044A3600F238000A8
:102BEC0020610220638063694942A180198002310F
:102BFC00198647311D83585218315A5275325C3937
:102C0C0099521832013199521832013199521832B5
:102C1C0001319952083518329D52023118329952AD
:102C2C00183201319952183201319952183201314E
:102C3C0099521832013199521832013199520C4B78
:102C4C000C49DC6001303562FFF736FC01210320B2
:102C5C00FFF720FC084B1D60A7E7C046D07E002084
:102C6C00B8BA00200040054040000034FFFF1000BF
:102C7C00A4BA0020C52600203860054070B50100BC
:102C8C000469EFF3108C72B620680028FCD0BFF3F7
:102C9C005F8F02200D5E4C6968004019C00024183B
:102CAC00002D37DB208848800869BFF35F8F002632
:102CBC0006608CF31088E36063880498013320610C
:102CCC005B0405985B0CA26060611A1C002B1FD082
:102CDC0093B22804628018430A69EFF3108C72B621
:102CEC001368002BFCD0BFF35F8F8B8823808D8003
:102CFC000B69BFF35F8F00221A608CF310880B787E
:102D0C0001329A40CB6808498C4663441A6070BD06
:102D1C000122DDE70B69BFF35F8F00221A608CF391
:102D2C00108801204042F2E73C20000010B5438996
:102D3C000A1493421ADD53009B184269DB00D31826
:102D4C000469EFF3108C72B62268002AFCD0BFF332
:102D5C005F8F5A88090494B2090C8A4208D003691F
:102D6C00BFF35F8F00221A608CF31088002010BD17
:102D7C008022120214435C80012302698371BFF329
:102D8C005F8F002111608CF31088044902788C4607
:102D9C009340C268012062441360E8E73C200000C5
:102DAC00F0B5D6464F464646C0B504000D0082B07D
:102DBC00EFF305878946002F0ED0344900204B6A6B
:102DCC00AB4203D38A6A0130A24226D302B0E0BCE4
:102DDC00BA46B146A846F0BD2D4B9846DB689A46DC
:102DEC00434650461E7800F061F80B005146020035
:102DFC000436B600715820008E1A2900801A9941A9
:102E0C008F4211DC0ED020BF204A0020536A4B4564
:102E1C00DCD3926A0130A242D8D25B1B5A1E93417A
:102E2C00D8B2D3E78642EED900F048F822002B0046
:102E3C00121A8B41002B1ADB00230193154B220035
:102E4C00009340462B00FFF719FF011E0FDD0F4BBF
:102E5C005A6A4A4517D39B6AA34212D34046FFF7DE
:102E6C0065FF0A4A0020536A4B45AFD3D1E7074AA6
:102E7C000020536A4B45A9D3926A0120A242A5D2E5
:102E8C00CBE74A45EAD120BFE8E7C0460040054001
:102E9C00D07E00209526002010B5024A0248FFF78C
:102EAC004BFA10BDEC79002058A900200300416AB0
:102EBC000A00986A596A8A42FAD17047034B596AD8
:102ECC000A00986A596A9142FAD17047004005404D
:102EDC00244B70B598420BD843011B1A224A9B0015
:102EEC001818916AC000936A5B1A9842FBD870BD9F
:102EFC00FA2200239200002100F05AFE04000D007B
:102F0C00194A536A1900966A536A8B42FAD13000F7
:102F1C00190024184D41AB4218D9134B5B6A1C00A5
:102F2C005A1C0AD0012301246442E5175B420E4966
:102F3C004A6A9A42FCD39A42D9D10B4A02E0516AAE
:102F4C009942D4D1916AA142F9D3D0E7AB4205D0D2
:102F5C00054A2B00526A9542E9D8ECE7A642F7D90C
:102F6C00DBE7C0469BC4200000400540064A4300F6
:102F7C00944680221B189B00634412011A600022A5
:102F8C00024B8000C250704700B0004060A9002086
:102F9C00F8B5454657464E46DE46E0B51E000A9B40
:102FAC00050088461700B34200D986E01A00330E9C
:102FBC00994633029B4649460023584600F096FB3F
:102FCC00414B6C009C466419A40002006444002927
:102FDC0039D0636800234E469A462B1FDBB29946C4
:102FEC00012B45D9C02380229B01E31812011A60E2
:102FFC00364BAD0059599B46002907D0586900F053
:10300C0037FB013043001B18033BFDD27B01E0274B
:10301C00226853401F4080234A465B01E3181F601F
:10302C00012A3DD9802380229B01E31812011A60EA
:10303C00534663605B4601205E51F0BCBB46B24612
:10304C00A946A046F8BD802382469B00984236D301
:10305C0000235846494600F049FB060063689A4530
:10306C00BBD9534663602B1FDBB29946012BB9D8F1
:10307C004346012BB6D1C02303229B01E3181A60EF
:10308C00023AA3681A42FCD07B01E0272268AD000B
:10309C0053401F4080230D4A5B019346E3181F6089
:1030AC0042462168514003220A401A6001224346DD
:1030BC009A40A3681A42FCD0B4E70020BDE78023F5
:1030CC005B009A46CAE7C0460080004060A9002019
:1030DC00F8B5DE464E4657464546E0B58B460500EC
:1030EC000A991800160000F0C3FA0A9B6C001F0224
:1030FC00324B64199C46A4006444636881469F4229
:10310C0000D967602B1FDBB29846012B30D9C02346
:10311C0080229B01E31812011A60294BAD0059590A
:10312C009A4600291BD17301E026226853401E40A9
:10313C00802342465B01E3181E60012A30D98023AC
:10314C0080229B01E31812011A6053464A466760BD
:10315C005A51F0BCBB46B246A946A046F8BD5869C8
:10316C0000F086FA013043001B18033BFDD2DAE76E
:10317C005B46012BCBD1C02303229B01E3181A60C1
:10318C00023AA3681A42FCD07301E0262268AD0013
:10319C0053401E4080230A4A5B019246E3181E608E
:1031AC005A462168514003220A401A6001225B46AC
:1031BC009A40A3681A42FCD0C1E7C0460080004088
:1031CC0060A90020F0B546464F46D646C0B51F0054
:1031DC00344B44009C462418A4006444636888461D
:1031EC001600FF2B02D880235B006360031FDBB249
:1031FC009A46012B30D9C02380229B01E31812017F
:10320C001A60294B85005959994600291BD1730125
:10321C00E026226853401E40802352465B01E3188F
:10322C001E60012A30D9802380229B01E3181201F1
:10323C001A6080235B0063604B465F51E0BCBA466A
:10324C00B146A846F0BD586900F012FA01304300AF
:10325C001B18033BFDD2DAE74346012BCBD1C0232D
:10326C0003229B01E3181A60023AA3681A42FCD0AD
:10327C007301E0262268850053401E4080230A4AD1
:10328C005B019146E3181E604246216851400322BF
:10329C000A401A60012342469340A2681342FCD0B4
:1032AC00C1E7C0460080004060A90020014B8000AF
:1032BC00C058704760A90020F8B5040021481E00D2
:1032CC0017000D0000F0D4F90100380000F0D0F91F
:1032DC00069B36041B031E432368002B20DB1A4B72
:1032EC001A49E3185A1E93418022920194465B427C
:1032FC001B0B174A1B0363441360164A13601F0011
:10330C000A689743FBD1144B2560E2182123A06077
:10331C0013602368002BFCDA0823E6601360F8BD09
:10332C003F2322681340AB42D9D1A3681B051B0D68
:10333C008342D4D1EE22E368D2021340B342CED101
:10334C00EDE7C046001BB7000040FDBF08C00040C1
:10335C0000E0004000F00040043000002D234360EA
:10336C007047C0468023024A9B000B43D3627047D0
:10337C0000800540142310B50100188804331B8805
:10338C00984710BD162310B50100188802331B880E
:10339C00984710BDF8B54746CE4680B50F1E19D0DC
:1033AC0014239946043304000025012698464B4605
:1033BC001888434621681B88984701C4431E9841CE
:1033CC00013540420640AF42F1D13000C0BCB94695
:1033DC00B046F8BD0126F8E7AA23064A1B01136084
:1033EC008D235B00D3600449044B19605368002B98
:1033FC00FCDA70470040024000B0FA000060024066
:10340C00034A044B93605368002BFCDA7047C046A8
:10341C0000400240616D6F637047C04610B50148B3
:10342C00FEF75CFF107A002070B5074D074EB542D1
:10343C0009D20024013E761BB60808CD984723001C
:10344C000134B342F9D170BD387F0020747F002065
:10345C00054B064A06491A60064A074B1A601000CB
:10346C000B689843FBD1704700E00040BFCDFBFEDA
:10347C0008C00040FE7F3C0000F00040044BDB6CB9
:10348C00002B03D18022034BD2021A607047C04636
:10349C00000011504C201150044A054B1A60054A8B
:1034AC001368DB018033FBD17047C046FFFFFF017F
:1034BC0000F0004008C000404022034B9A675A6756
:1034CC001A67DA667047C04600F0014010B5FEF787
:1034DC00C1FF10BDF8B52749274C284D641AA6101A
:1034EC003200302E00D930222800920000F0D0FBA0
:1034FC00BC2C3BD830202F232C196407204A801B6E
:10350C00E40F9B1B052B16D93700002C02D0B300FF
:10351C00771CEA50001B33199B004108EB18C900BB
:10352C00C9181A605A6008339942FAD10123034230
:10353C001CD09843C619B300EA50731C2F2E15D01B
:10354C009B00EA50B31C2E2E10D09B00EA50F31CAB
:10355C002D2E0BD09B00EA50331D2C2E06D09B0039
:10356C00EA50731D2B2E01D09B00EA50054B9D6039
:10357C00F8BDC04600010010C00100100000002082
:10358C00C101001000ED00E0002310B5294C82B001
:10359C00A367FFF721FF0122274B1A60636C012BF5
:1035AC00FCD10322254B1A60224A936B012BFCD1D0
:1035BC00013300930121224A22480433FFF77CFE99
:1035CC00052301210093204A2048FFF775FE0022B5
:1035DC00022104201E4BFFF7F5FD002201210520DE
:1035EC001C4BFFF7EFFD0022002107201A4BFFF7C1
:1035FC00E9FD002200210820174BFFF7E3FD802393
:10360C00DB000093002200210920134BFFF760FD23
:10361C000022104B00210620FFF7D4FD0420FFF7F9
:10362C0045FE0E4900F024F801000020FFF79AFE39
:10363C0002B010BD008000403CB0004030B00040F3
:10364C00002F685900800240008C864700C0024061
:10365C00001BB70040597307006CDC0240420F009E
:10366C0001480421014B1847F07E0020B5310020A1
:10367C00114A936F9B0813D210665166002905D02E
:10368C00FFE7FFE7FFE7516F106F704704B50028A5
:10369C0001D00020C04303F079F9002104BDC046DD
:1036AC00F0B5146E556E576F166FFFF7E5FF146685
:1036BC00556657671667F0BD000000D094464A4A1D
:1036CC00926F9208624601D228E0C046F0B5464E91
:1036DC00346E756E776F366F00F020F89446424A60
:1036EC0014665566576716676246F0BD94463E4AA7
:1036FC00926F9208624601D254E0C046F0B53A4E41
:10370C00346E756E776F366F00F04CF89446364A0F
:10371C0014665566576716676246F0BD002B24DBAE
:10372C0011D000293EDA00B5C943404200D1013125
:10373C0000F038F8C943404200D10131DB4352421A
:10374C0000D1013300BD002AEBD1002801D10029A2
:10375C0005D00020C90FC90701D1C043410800B5ED
:10376C0003F014F90022002300BD00B500290ADB88
:10377C00DB43524200D1013300F014F8C9434042FC
:10378C0000D1013100BDC943404200D10131DB43BE
:10379C00524200D1013300F005F8DB43524200D114
:1037AC00013300BD002923D1002B18D1002A0CD0E5
:1037BC00BC460D4F38667A6600210023FFE7FFE711
:1037CC00FFE77A6F386F67467047002801D00748CB
:1037DC00010000B503F0DAF80022002300BD02005E
:1037EC000B00002000217047000000D0FFFFFFFFFE
:1037FC00002B00D0BFE0130C28D1002AE7D080B4F6
:10380C00114F39667A66FFE7FFE730B4040C7B6F23
:10381C00396F1B0423433B667A66FFE7FFE7FFE73C
:10382C00C04684B27B6F3D6F1B0423433B667A66B4
:10383C00FFE7FFE7C04600232C042D0C7A6F386F8E
:10384C0000196941B0BC7047000000D0F0B5944637
:10385C000025140E01D112020835140F01D11201EA
:10386C000435940F01D192000235D40F01D15200CE
:10387C000135D40B0134254F7C66254C3C660E0C6F
:10388C0093B2FFE7FFE7FFE73C6F6643360C770325
:10389C00BE467343DF0B5B04C01AB941130C734370
:1038AC00DB18C91ACE086643360CB64493B2734380
:1038BC001F0F1B01C01AB941130C73431F0B1B05BF
:1038CC00C01AB941860D8F023E436643360C092D52
:1038DC0024DB520A7243801A7703460A6643360C7D
:1038EC0016235B1BDE40DF40BF1964466643821B18
:1038FC007046043506330100D940A840C01900D3E6
:10390C000131A24206D20023F0BD0000000000D01D
:10391C00FFFFFFFF121B0130F3D3F1E709277F1BD9
:10392C00FE406446A2B27243801A00D20139220CC6
:10393C007243130C1204821A99410B007046043521
:10394C0013370100F940A840801900D30131002B36
:10395C0002D1A2420AD2F0BD013000D30131121BB8
:10396C00FAD2013BF8D1A24200D2F0BD013000D313
:10397C000131121BF7E7F0B51C0C00D080E00CB441
:10398C0000251C0A04D11B02160E33431202083503
:10399C001C0B04D11B01160F3343120104359C0B75
:1039AC0004D19B00960F334392000235DC0B02D1FD
:1039BC0092185B4101351C00971864410134464F45
:1039CC007C66464C3C660E0CFFE7FFE7FFE7C04603
:1039DC003C6F6643360C7703BE4697B27743C01BE9
:1039EC0000D20139C01B00D201399FB27743C91BE9
:1039FC00C91B170C77437E04FF0B801BB941CE0803
:103A0C006643360C0C2D33DBB644120B1F053A43C0
:103A1C001B0B97B27743C01B00D201399FB277437F
:103A2C00C91B170C77433E043F0C801BB941860D14
:103A3C008F023E43664329277F1BFE400C3D774691
:103A4C00AF40BF1930BCA2B2ABB272437343801A01
:103A5C009941220C7243130C1204801A99410200F2
:103A6C000B000137001BA941F9D2781E0021F0BDD3
:103A7C000C277F1BFE4077467F0BAF40FF19E0E71A
:103A8C0000245D1C07D0144F7D663966FFE7FFE705
:103A9C00FFE7FFE73C6F95B29EB265436643401B60
:103AAC00B141150C1E0C6543664336042F0C3E4386
:103ABC002D04401BB141994204D202000B0020009E
:103ACC000021F0BD01D19042F7D3801A9941013405
:103ADC009942F2D3F6E70000000000D0FFFFFFFF91
:103AEC00132370B51D78012D19D014DD1F48FFF775
:103AFC0049FC06001E48FFF745FC1E4C8022310095
:103B0C00200000F0C5F8022D2DD01B48FFF732FC29
:103B1C001A4B186070BD1A4B164CA364F5E7184B82
:103B2C00144C23606360A360E36023616361A36151
:103B3C00E36123626362A362E36223636363A3634F
:103B4C00E36323646364A364E36423656365A3652F
:103B5C00E36523666366A366E36623676367A3670F
:103B6C00E367A364D1E7064BA364CEE7534400009C
:103B7C0053460000008100204C330000B4BA0020F2
:103B8C00A539002007B5604601880A0A0230DF2AF1
:103B9C00FAD1C9B2820804D30288408800041043C9
:103BAC0000E00068014A5050039007BD00810020DE
:103BBC0051434343C9188C46110C83B24B4310B488
:103BCC00040C614392B280B2504362431C041B0C40
:103BDC00001910BC59411304120CC0185141614416
:103BEC0070470000132310B512481C78FFF7CAFB6E
:103BFC000100012C0AD003DD80220F4800F048F8A8
:103C0C000E48FFF7B7FB0E4B186010BD0A4C542240
:103C1C00200000F03DF80B4B6365A365E36523665C
:103C2C006366A366E36623676367A367E367236240
:103C3C00E361E5E753460000008200204C330000AE
:103C4C00B4BA0020693A002007B5604601880A0A18
:103C5C000230DF2AFAD1C9B2820804D30288408824
:103C6C000004104300E00068014A5050039007BD67
:103C7C000082002001480421014B1847007F0020DE
:103C8C00B5310020014B1B6818470000007F002055
:103C9C00014B5B6818470000007F002010B500281E
:103CAC0000D110BD00F008F9FBE7C04610B5094A79
:103CBC000300146884B0002C08D00122009106483F
:103CCC00524203A9A047012004B010BD00F040F9F6
:103CDC000020F9E794BA0020BD3A002000BEFDE7B1
:103CEC0010B5FFF7FBFFC04670B5FFF79DFB074D06
:103CFC00074EB54209D20024013E761BB60808CD0A
:103D0C00984723000134B342F9D170BD747F002071
:103D1C007C7F0020030010B5080011001B68984739
:103D2C0010BDC046F0B5C64600B5437D07000D007A
:103D3C001600002B38D0002A2EDD00216A1E90467A
:103D4C006A5C037D4C1C00200A2A0CD0A64216D0BB
:103D5C0043461B5D21000D3B5A4253416A5CDBB26A
:103D6C004C1C0A2AF2D1002BF0D1884217DB02211D
:103D7C0010483B689847A64207D02000E8E78642E7
:103D8C0003DD311A3B6828189847AD19013D2B7893
:103D9C000D3B5A4253413B7580BCB846F0BD091AE5
:103DAC003B6828189847E2E70368110028009847F9
:103DBC00F2E7C046E87C0020F0B5DE4657464E469A
:103DCC004546E0B585B017001C0006000D00FFF756
:103DDC0075F80023314A12184B41802109068B4299
:103DEC0002D301222E4B52422E4908008A4602F081
:103DFC0007FF01906B1C03D1300002F06DFE050033
:103E0C00002C26D0284B9846284B1C68002C15D02B
:103E1C00002F21D1264F02E02469002C0ED02368FC
:103E2C00002BF9D03B68002B01D09C42F4D1200030
:103E3C002A003100C0472469002CF0D1019B002BD3
:103E4C0028D1280005B0F0BCBB46B246A946A04616
:103E5C00F0BD184B9846D7E7154B994602ABDF1DC2
:103E6C000A239B4602E02469002CE7D02368002B30
:103E7C00F9D04B461B68002B01D0A342F3D12A008A
:103E8C0031002000C0475B460122390020003B7006
:103E9C00C047E8E7504602F049FFD2E740420F0026
:103EAC00FFFFFF7F307F0020453B002088A90020CA
:103EBC0090B60020353B0020F0B5CE46474680B585
:103ECC0083B06B460600DD1D2870FEF7F7FF00235C
:103EDC001A4A12184B41802109068B4202D3012247
:103EEC00174B524217490800884602F089FE164BC0
:103EFC0081461C68002C14D0144F02E02469002C5D
:103F0C000FD02368002BF9D03B68002B01D09C42CA
:103F1C00F4D1200001222900FFF704FF2469002CB2
:103F2C00EFD14B46002B05D1300003B0C0BCB946D5
:103F3C00B046F0BD404602F0F9FEF5E740420F00F6
:103F4C00FFFFFF7F307F002088A9002090B6002063
:103F5C0070B5040002F0C0FD012301000500012230
:103F6C002000FFF729FF084B1C68002C06D0636863
:103F7C00002B05D098472469002CF8D1280070BD7F
:103F8C002469002CF3D1F9E788A90020F8B500F0DA
:103F9C0043F90C23194DFF22AB6705201849FEF796
:103FAC00B5FA184C402200212000FFF76BFE402789
:103FBC00002301262121144A66702783A260136016
:103FCC0063545F31618445396354104A104963600E
:103FDC00E2602787A1620B606362E26202F0BAFEC4
:103FEC0080239B052E64EB6490230A4A0120EA503F
:103FFC008022094B5202DA64F8BDC0460000115011
:10400C007D6C002094B600208400105000011050EC
:10401C008000105010D001000020115010B501216B
:10402C000520FEF737FA10BD10B50022002102481A
:10403C0000F012F910BDC046B4B60020044B197044
:10404C00002904D080219023024A8902D150704764
:10405C00C7BA0020002011500B785B0602D14B78B8
:10406C00052B00D070478A78014B1A60FAE7C046DE
:10407C0000001150F0B5C646C87800B58007830F14
:10408C001800012B60D08F780A794B797F21394049
:10409C00FC091B024E001343334D32195201AA186E
:1040AC00977001276740577000275B055B0DD77031
:1040BC001383D076B846CA00012C32D02B4FBC46A5
:1040CC008F016244BC46AC446746BA6047461760F1
:1040DC00002932D0264AC9009046624641445160BC
:1040EC003F223F339343022837D0224937190A68BD
:1040FC007F01D3180B602049EF19FA608B422ED840
:10410C0036197601AD19EB7E1C499B064A401343C8
:10411C008022120613436A681360012080BCB846E3
:10412C00F0BD174FBC468F016244BC46AC44674699
:10413C00BA6247461760002908D1002364012C1984
:10414C006360104BE360E8E70020E7E70B4AC90027
:10415C009046624641445162C2E75B00C5E7FFF7F7
:10416C005DF9FA68CCE7C04694B600208400105084
:10417C00040010509CBA0020FF0F1050000010508B
:10418C00800010500001105010B502F0E3FD10BD7E
:10419C0010B57F200C0020404000E40911000019EC
:1041AC001A00034B4001C01800F056F8012010BD56
:1041BC0094B600207F23180010B50840CA090B42A2
:1041CC0003D107497D3B9B1A8B66400080188022E7
:1041DC00044B40010021C018120103F0EDF910BD91
:1041EC000020115094B600207F22130010B50B4014
:1041FC000A4200D110BDC9095B005B1804485B0181
:10420C00C018002300220349C37003F0D5F9F1E76D
:10421C0094B60020FFF7FFFF80220A4B520410B522
:10422C001A60094B09491A6010000B689843FBD1BE
:10423C008022002152010648FFF724FD0922054B7C
:10424C005A6710BD00E0004000F0004008C000407C
:10425C000000105000001150002310B5C382013330
:10426C00828283760161040003F072F9002804D085
:10427C0080219023074A8902D150200003F07CF959
:10428C00002802D00123237710BD200003F0BCF9D5
:10429C00FAE7C04600201150002070477047C04616
:1042AC007047C046002070470020704700207047C0
:1042BC007047C0467047C0467047C0467047C046FE
:1042CC00024B5878431E9841C0B270470CA700208F
:1042DC00024B18784007C00F7047C0460CA700204F
:1042EC00F0B5D6464F464646C0B5314B07009A4608
:1042FC001B780E00FF2B01D0012044E0002941D097
:10430C00002154222B48FFF7BDFC00222A4C2B4BDA
:10431C0020001A70FEF792FA294B1C60294C2000E1
:10432C00143CFEF799FA200002F054F9264B274D65
:10433C001C60274B002B2BD0280000E000BF254B26
:10434C002A7818602449002489462249002388468B
:10435C0010E043461B6862019B18002B12D05B686F
:10436C00002B0FD098472A780134E4B2511C23005B
:10437C00A1420FDBA242ECD89B1A5B014B445B6859
:10438C00002BEFD10020E0BCBA46B146A846F0BDE8
:10439C002A78D7E75346310038001F70FFF7F6FD37
:1043AC000028EFD03800FFF739FE0120EBE7C046BC
:1043BC002C7F00200CA7002004A70020C8BA0020E6
:1043CC0060A70020247F002064A70020C6BA00202C
:1043DC0000000000DC940020947D0020F0B5DE4647
:1043EC0057464E464546E0B5C84B91B002931B78F4
:1043FC00FF2B00D13EE1C64BC64E9B465F46C64BDB
:10440C000DAC0193C54B009335686A69EFF31081CD
:10441C0072B61368002BFCD0BFF35F8FA961280024
:10442C00210001F005FF6A69AB69BFF35F8F0021C2
:10443C00116083F31088002800D11BE16378082BEE
:10444C00E2D89B00FB589F466368002BDCD0A06829
:10445C009847D9E77F222179AF4D0A405300EB18DA
:10446C009846C809804440460123303005799D4365
:10447C000571057903339D430571002A00D100E1D4
:10448C004346A74A1B7D1278934200D3EFE0A54A1E
:10449C005B011568ED18002D00D1EBE0A368627983
:1044AC002078AD69A847AFE79F4A1378002B00D15D
:1044BC00E0E01378013BDBB213701378002BA3D12F
:1044CC000122954D01212B78042013432B703423AA
:1044DC00EA5C8A43EA54EA5C8243EA540133EA5CBC
:1044EC008A43EA54EA5C8243EA54237800209B46D0
:1044FC0000F0D8FC602223791A40602A00D1EFE04A
:10450C00402A00D1F5E0DB06DB0E012B00D113E1D4
:10451C00022B00D1C7E0002B00D0E1E0202A00D113
:10452C001CE2002A00D0DBE06379092B00D9D7E02C
:10453C007E4A9B00D3589F46774D2B78DB0700D4DF
:10454C0062E7FFF7BBFE5FE7019BDB78DB0700D47C
:10455C005AE76068FFF7A4FE56E76F4D2B78DB0730
:10456C0000D451E728780007C00FFFF7A5FE4BE7F2
:10457C0023786A4999468B46694B6A4998468A461C
:10458C0039001A7847460023B04600254E46894626
:10459C0010E053461B686A019B18002B00D176E093
:1045AC00DB68300098473A780135EDB2511C2B008E
:1045BC008D4244DC9542ECD39B1A5B015B44EFE7E4
:1045CC00237858499946564B8A4698463100BB4643
:1045DC004E461A7800250023474689460FE053467D
:1045EC001B686A019B18002B55D0DB68300098477C
:1045FC003A780135EDB2511C2B008D4207DC954207
:10460C00EDD39B1A009A5B0194466344EDE7019D40
:10461C00542200212800FFF735FB1022FF214448CB
:10462C00FFF730FB28002022FF2114304E465F4656
:10463C00FFF728FB00F02CFCFFF73CFEE4E6364DC0
:10464C00542200212800FFF71DFB1022FF21281DFA
:10465C00FFF718FB28002022FF21143046464F4656
:10466C00FFF710FB00F014FC2379AB70CCE6501C68
:10467C00984213DA11B0F0BCBB46B246A946A0462C
:10468C00F0BDA3686279207800F020FCBCE64646B9
:10469C004F46214DE6E74E465F46CBE71F4D9B1A32
:1046AC005B015D19FAE67023217A0B4218D1C80917
:1046BC0082460F330B405B0098461948EB18534465
:1046CC001B7D00789946834266D216485B010068D0
:1046DC0081469944002A00D15FE14B46002B68D1FA
:1046EC0020780021FFF766FD80212078FFF762FD1E
:1046FC008AE6104800F0D6FB012158460EAAFFF7B7
:10470C00CBFD002800D07FE6EAE7C0462C7F0020D6
:10471C00EC7C002064A700200CA70020947D0020D6
:10472C00C6BA0020DC940020C8BA0020107D0020FE
:10473C0010A70020B9400020237A0F2BD0D8CF4AE5
:10474C00EB181B791578AB423ED3691C9942C7DB39
:10475C005D1BCB4B6D01ED18686900F0A3FB0121CB
:10476C0058466B690EAA9847002800D04CE6602288
:10477C00150023791D401A42B2D163790A3B012BF3
:10478C00AED800F08FFB63790A2B00D199E1584623
:10479C000EA900F011FB37E6431C4B4500DAF7E09D
:1047AC004B461B1A5B019946B5488144002A00D13F
:1047BC00F3E04B46586900F075FB4B460121584617
:1047CC005B690EAA98479CE7AE4A5B011568ED1829
:1047DC00002DC1D184E7A37999466B789945D6D041
:1047EC006B78002B00D033E14B466B70002B00D163
:1047FC002BE148460138C0B2FCF788FA002800D1FA
:10480C007EE143780793022B00D079E10122C17934
:10481C00B1468B11491113400A40302112015B0142
:10482C0013432A78A8468A4313432B7009239A46CC
:10483C0082445646BA46C37882781B021343C31887
:10484C0005938E4B04938E4B08938E4B09938E4B92
:10485C000A93059BB34200D855E1737801220B2BC8
:10486C0003D13378F278F6187378042B00D044E136
:10487C00059B00279B1B9BB20693049B0B921D78F8
:10488C00002303931BE0099A7B011568ED18002D9A
:10489C0000D132E1310058462B69069A984784467C
:1048AC00082803D9069A824200D313E1049B0137EE
:1048BC001D78FFB26B1C03979F4200DD1DE1BD42CA
:1048CC00E1D8039B5D1B089B6D019C466544E1E7A9
:1048DC006B780CAA02321370584601230EA900F013
:1048EC0081FA91E5E3881A0AD8B20F2A00D9F7E6C3
:1048FC0066499300CB589F460EA800F0D9FA58464B
:10490C00A179FFF791FB02222B7813432B707BE5E7
:10491C00E388012B00D0E3E608222B78584693431A
:10492C000EA92B7000F048FA6EE5022029780CAB2A
:10493C009A1C8B068908DB0F01400B4313805846E9
:10494C0002230EA900F04EFA5EE5E388012B00D09D
:10495C00C6E608222B7813432B7018E7237A0F2B0B
:10496C0000D9BDE6EB181D79444B1B789D4228D22B
:10497C00444B6D011B685D19002D00D1B0E66869D0
:10498C0000F090FA012158466B690EAA9847B8E6D8
:10499C00002A00D0A4E60023994662790220130075
:1049AC0003928343012B15D0002A00D098E62B00EC
:1049BC004344534430331B790CAA9B07DB0F023260
:1049CC00BCE75A1CAA4200DA8AE6ED1A2C4B6D01A0
:1049DC00ED18D4E7E388002B12D1029B1878039BC7
:1049EC00012B23D0FFF7E6FB43460221EB1853447F
:1049FC0030331A790A4301211A711A790A431A7150
:104A0C004B46002B00D1FFE4586900F04BFA4B46A3
:104A1C0001215B690EAA58469847002000F042FA23
:104A2C003523EB5CDB0700D5EEE4B0E6FFF7DCFBEF
:104A3C0043460221EB18534430331A798A431A71D6
:104A4C001A7903998A431A71DAE7FFF733FC9EE669
:104A5C0000215846FFF7F2FA5846FFF795FBAB7862
:104A6C00074903930491054B064998461A7805911A
:104A7C00002329001D008A461BE0C046C6BA002050
:104A8C00947D0020DC94002020A70020387D00209D
:104A9C00059B6A011B689B18002B4DD0DB685846A0
:104AAC00984743461A780135EDB2511C2B008D42C4
:104ABC002EDC9542ECD39B1A049A5B01944663441A
:104ACC00ECE70CAB9A1C584601230EA9157000F0AC
:104ADC0089F999E40B9A012A4FD0002A3CD0002383
:104AEC00B07804E00133DBB20F71934234D2C118B9
:104AFC00C9B241440D79FF2DF4D04E464546574678
:104B0C0000236B70ECE54E465746FFF7D1FB3EE6B3
:104B1C005546542200212800FFF7B4F81022FF213B
:104B2C00281DFFF7AFF828002022FF211430FFF7D3
:104B3C00A9F8039BAB7057E65546FAE7FFF7B2FBB3
:104B4C00021E00D1CCE5D37891781B020B4358465A
:104B5C000EA900F047F9D4E565463B002A00310068
:104B6C000A9801F0E1FAAC46049B039A1B78664460
:104B7C000133934200DB6CE6BFE7174B296999427E
:104B8C00ADD1079AABE7FFF78FFB021E00D1A7E56B
:104B9C00584613780EA900F025F9B2E52189FCF7E7
:104BAC00B9F8021EF4D19BE5022A0FD0FFF77EFB69
:104BBC00021EC8D194E5FCF7A5F8021E00D18FE5C2
:104BCC00122358460EA900F00DF99AE5FCF79EF851
:104BDC00021EB8D184E5C04691500020F8B5574666
:104BEC004E46DE4645460C00E0B516001F00002A76
:104BFC003CD01F4B00259A46702399461D4B9B4673
:104C0C0017E05B462000997801F050FA00281FD07D
:104C1C0021004046FFF72EFA002819D0A378DA09B4
:104C2C00012A1CD00A9A013513702378E418B54276
:104C3C001CDA6378052B0BD1E3789B079B0FBB42E7
:104C4C0006D153464A461B789846A3781A42D8D0C8
:104C5C000020F0BCBB46B246A946A046F8BD0B9A54
:104C6C00013513702378E418B542E2DB0120F0E73C
:104C7C002C7F00200CA70020702270B5094B0C0073
:104C8C001D788B781A4201D0002070BD064B200095
:104C9C00997801F00BFA0028F6D021002800FFF7D4
:104CAC00E9F9F2E72C7F00200CA700200B007F20F5
:104CBC0010B51840DB0934334000044AC018044BCB
:104CCC001168C01801F0AEF910BDC04660A70020F5
:104CDC000CA700200B007F2010B51840DB093433E3
:104CEC004000044AC018044B1168C01801F0C2F906
:104CFC0010BDC04660A700200CA7002070B57F2413
:104D0C000F480C4064000419CD0964193034207923
:104D1C00C00701D5002070BD01262579094835430F
:104D2C0000782571FFF734FA0028F4D10122237999
:104D3C00934323712379033293432371EAE7C046EB
:104D4C000CA700202C7F00207F22054B0A4052002C
:104D5C00C9099B185B1830331879C007C00F70470E
:104D6C000CA7002010B50B4B0C001878FFF722FA9B
:104D7C007F230221084A23405B00E409D3181B1946
:104D8C0030331A790A4301211A711A790A431A71BC
:104D9C0010BDC0462C7F00200CA700207F22054BA5
:104DAC000A405200C9099B185B18303318798007E8
:104DBC00C00F70470CA7002070B5094C06000822E4
:104DCC0020000D00FEF764FF00238021E360A36048
:104DDC002B783000994300220023FFF78FFF70BD22
:104DEC006C960020F8B5CE4647469046264E80B5C8
:104DFC008146082230000D001F00FEF749FF434694
:104E0C00B3600023F381EC79AB7924021C43231C9F
:104E1C00BC4200D93B1C9FB2B381002C0ED0002F9A
:104E2C0018D04346002B2CD03B1C402F1BD89FB2D4
:104E3C0033787F2B1CD80021144A0FE080212B786B
:104E4C000022994348460023FFF758FFC0BCB946DF
:104E5C00B046F8BD7F230022317899433B00484689
:104E6C00FFF74CFFF2E740239FB233787F2BE2D958
:104E7C00064C3A0041462000FEF70AFF8021220032
:104E8C00ECE70020E2E7C0466C9600202C96002050
:104E9C0010B5142200210248FEF7F4FE10BDC046E6
:104EAC006C960020014B18617047C0466C96002030
:104EBC0010B5054C010008222000FEF7E9FE002386
:104ECC00A360E36010BDC0466C96002070B5384CF2
:104EDC001D0023780600DA09C9098A4210D0002087
:104EEC00002D00D070BD21003000FFF7B5F823690C
:104EFC00002B03D022000321300098470120F1E75A
:104F0C00A0687F2B05D8002834D02A002949FEF749
:104F1C00BFFEE289A1685219E38892B24919E28175
:104F2C00A160934214D03F2D12D9A389981A051C65
:104F3C0080B240282AD82078ADB27F2828D800210A
:104F4C009A4232D01B4A2B003000FFF7D7FEC9E73C
:104F5C002369002B05D0220002213000984700283D
:104F6C000AD0802123780022994330000023FFF7D8
:104F7C00C5FEB7E70020B5E700213000FFF71AF9AE
:104F8C0030008021FFF716F90120ABE74025D2E76E
:104F9C009A4207D0074C2A002000FEF779FE8021A8
:104FAC002200D0E780210022CDE70022CBE7C046CB
:104FBC006C9600202C96002070B50500FFF780F948
:104FCC00002800D170BDFFF783F90028FAD1C8235F
:104FDC006B43124CE618F1780029F3D010331C19EE
:104FEC00200001F00FF93F28ECD90020F178FFF7F1
:104FFC005DFE0028E6D0200001F004F93F2808D916
:10500C00074BEA01D218F17840230020FFF776FE17
:10501C00D8E7F1780020FFF75DFED3E76495002018
:10502C00E0940020C82310B543430248181801F03F
:10503C00CBF810BD74950020F0B5C824C64680236B
:10504C0044431F4F1034050000B53C195B029A42D3
:10505C0000D31C4A200092B201F038F98046FFF7C9
:10506C002FF9002803D1404680BCB846F0BDFFF7AD
:10507C002FF90028F7D1C8266E43BE19F378002B00
:10508C00F1D0200001F0BEF83F28ECD90020F178D7
:10509C00FFF70CFE0028E6D0200001F0B3F83F2803
:1050AC0008D9094BEA01D218F17840230020FFF708
:1050BC0025FED8E7F1780020FFF70CFED3E7C046B9
:1050CC0064950020FFFF0000E0940020F8B5060076
:1050DC00FFF7F6F8002801D10020F8BDFFF7F8F82B
:1050EC000028F9D1C82474432500134F2435ED1939
:1050FC00280001F069F80028EED03F190020B9789B
:10510C00FFF7D4FD0028E7D00C4BF401E418210084
:10511C002800402201F0DAF8B978051E08D0030007
:10512C0022000020FFF7EAFD0028D5D02800D4E7A4
:10513C000020FFF7CFFDCFE76495002020950020DD
:10514C0070B5C82444430C4B0500E41880235B0263
:10515C009A4200D3094A200092B201F07FF906006E
:10516C00200001F031F83F2801D8300070BD280034
:10517C00FFF7ACFFF9E7C04688950020FFFF000061
:10518C00F0B50025184C83B0C82200212000FEF792
:10519C0079FD164B21001D70FF236371E1235B0227
:1051AC00A360200008234022A37338310095073BED
:1051BC00103000F0D3FF270001232100200026002F
:1051CC00402278310093B837243000F0C7FFC03646
:1051DC003800FDF733FB3000FDF730FBE56127624B
:1051EC002663656303B0F0BD6495002060950020D4
:1051FC000B4B196B00290AD01A6A002A0DD0002219
:10520C001A621A63DA6100225A63012070471A6A23
:10521C00002AFAD0D9611962F7E71A63F3E7C0469E
:10522C006495002070B50F4C052200212000FEF77C
:10523C0029FD0D4D2B78DA0707D50C4C9B070CD5A7
:10524C000121200001F0E6F970BD2000103001F0C2
:10525C00C1F92B78054C9B07F2D4200001F0BAF968
:10526C00EEE7C046649500206095002088950020EC
:10527C00F0B54B79060083B0022B02D18B79022B4F
:10528C0003D00025280003B0F0BD214FBB78002BC4
:10529C00F7D18B7809253B700C780C196378242B8B
:1052AC000BD1082A02D80FE0AA420DD32378E418B8
:1052BC005D196378ADB2242BF6D0052B08D0042BE6
:1052CC0002D163790A2B11D00020FFF775FED9E7C4
:1052DC0021003000FFF7D0FC0028D2D0A3787B70DF
:1052EC0023785D19E4186378ADB2E8E7094B2778A9
:1052FC00019301330093022202233000E119FFF7DE
:10530C006DFC0028BDD00E35ED19ADB2DCE7C04602
:10531C006495002066950020F8B56023140012787F
:10532C00050013400020202B07D1304A63792779E0
:10533C0016781B023B439E4200D0F8BD6378222BAB
:10534C001AD007D8202B34D0212BF6D101293ED0EE
:10535C000120F2E7232BF0D1012940D00329F7D10A
:10536C00234B002BF4D0E178A378090200201943D9
:10537C0000E000BF0120E0E7012930D00329E7D18C
:10538C0001252E00A378E478023924021C43147101
:10539C00264024321000714001F03CF9154B002BD3
:1053AC00D6D06208002031002A40FBF7C7FB012051
:1053BC00C3E701290BD00329CAD10F4B002BC7D04F
:1053CC0008320020110000E000BF0120B5E70723E0
:1053DC0021002800094AFFF705FD0120ADE7210057
:1053EC002800FFF7E9FC0120A7E7C04664950020E0
:1053FC00000000005D090020000000006C950020FA
:10540C00F0B54F464646D646364DC0B5EA781F0035
:10541C0080460C00AB788A423BD08B4210D00020E7
:10542C00E0BCBA46B146A846F0BD2F4B002B04D0C9
:10543C002E4800F0DFFE002851D00020FFF7BCFD05
:10544C00AB78A34201D00120EAE7294B002B02D014
:10545C00002000E000BF0020FFF738FE0028F2D14A
:10546C00244C200000F0B0FE0028ECD1002FEAD034
:10547C00BF06E8D1243C4046A178FFF717FC002872
:10548C00E1D0002300224046A178FFF737FC012031
:10549C00C6E710239A46184EAA4431005046BAB2B9
:1054AC0000F0DCFF154B002BBFD06B79FF2BBCD071
:1054BC00002FBAD0F219914603E00136B145B4D0B1
:1054CC006B7932789A42F8D1504600F093FE00285E
:1054DC00F3D15346103B597900E000BFEDE7FBF7E1
:1054EC003FFBAAE7649500208109002074950020F9
:1054FC000000000088950020E094002000000000CF
:10550C002C2270B5302402250F4B995499689A6B54
:10551C001D558A1A9A620C341C5D002C03D10B4D5C
:10552C009D873E255C55002908D0002A06D01A7BA1
:10553C00D20904D02E22995CFFF714FC70BD2F22E7
:10554C00995CFFF70FFCF9E7C0A6002005200000CE
:10555C00F0B54746CE4680B5344C0600A368E18AC8
:10556C00984687B000293CD049BA89B21800FEF79A
:10557C007FF80104090C2369257D1B0A2D061D43A8
:10558C00A36B2DBA18009946FEF772F843460A0031
:10559C0041194D465B1B8025254F607B6D01AB424D
:1055AC0000D92B0000933B00FBF776FB031E1ADBA4
:1055BC002E22A15C002809D083B23A003000FFF7FC
:1055CC009DFB07B0C0BCB946B046F0BD03A8273A56
:1055DC0001710021067042704371836002F06AF819
:1055EC00EFE70021C7E7134B0022A3873E233021AE
:1055FC000220E254123B0132E254A268A36B6054C5
:10560C00D31AA362002ADCD0002BDAD0237BDB096F
:10561C0005D02E233000E15CFFF7A4FBD1E72F234C
:10562C003000E15CFFF79EFBCBE7C046C0A6002034
:10563C00C0960020023A000010B53C2403480155E6
:10564C003D2142543E228354012010BDC0A60020AF
:10565C0010B5402200210248FEF714FB10BDC046D5
:10566C00C0A6002010B5402200210248FEF70AFB1C
:10567C0010BDC046C0A6002030B54B79040083B0E5
:10568C00082B02D18B79062B02D0002003B030BD41
:10569C00CB79502BF9D1162AF7D98A780E4D233BAA
:1056AC00EA540B780222C9182B002E3301932B00DD
:1056BC002F3300930223FFF791FA0028E5D0302313
:1056CC000022EA54013BE95C2000044A103BFFF73E
:1056DC0015FB1720DAE7C046C0A60020C0960020B4
:1056EC00F0B50500140083B0012926D17F23127870
:1056FC001340022B24D060231340202B01D0002018
:10570C001CE06378FE2B4AD0FF2BF8D1E378A2780B
:10571C001B021343F3D1E379A2791B021343EED19D
:10572C0030213C4A280053540021536393639387E0
:10573C003E33D1542100FFF73FFB012003B0F0BDF5
:10574C006378012BD7D1E378A2781B021343D6D10F
:10575C00302221792F4CA35C042B57D02E20205CB7
:10576C0088423ED02F22A65C8E42E6D1002BE4D19B
:10577C0031002800FFF7E8FA0028DED131002800BC
:10578C00FFF70CFB0028D8D130230022E254013B58
:10579C00E15C2800204A103BFFF7B0FACEE7E37833
:1057AC00A2781B021343AAD1E379A2791B021343FB
:1057BC00012BA4D16A46D371184B002B0FD000E0FB
:1057CC0000BF00289BD00138C0B26B466A46D87126
:1057DC002100012328000732FFF704FBADE700206E
:1057EC00F3E7022BA9D1A16BA3685B1AA362032375
:1057FC00A354094A20341300C2CCC2C321781970B7
:10580C0001000D232800FFF779FA97E7FFF7AAFAB2
:10581C0093E7C046C0A60020C09600200000000000
:10582C00F0B54E465746DE464546E0B51F003023E0
:10583C00B54C91B00290E65C9946012E35D0032E02
:10584C000DD0002E2ED1013BE35C8B4240D00120C9
:10585C0011B0F0BCBB46B246A946A046F0BD2E2303
:10586C00E35C8B42F3D10D2FF1D1E37B282B00D1DC
:10587C00C6E22A2B00D1BBE2A44B002B04D02100A2
:10588C00607B0F3100E000BF00233026A3552F337F
:10589C00E15C9F4A0298103BFFF730FA002800D1D8
:1058AC0096E0A65D022ED2D163E0A26BE37B90461C
:1058BC00282B56D02A2B00D19FE03B00227B43445F
:1058CC00616BA363D20900D188E08B42BFD34DE05A
:1058DC008F4B03931B681F2F6CD18E4A934269D157
:1058EC002300039AA1CAA1C3A1CAA1C3106818605E
:1058FC009088988092799A71874B4A4623626368A4
:10590C00A66263622C23E6542B3BA354E27BA36870
:10591C00A6636363282A00D1AAE02A2A00D177E281
:10592C00002B00D1E9E0207BC00900D0E5E080220B
:10593C005201934200D8DFE22C22A36230230130C3
:10594C00A0542A3AE2540C33E35C002B03D1734A83
:10595C00A2873E22A3540298FFF704FA3023E65C98
:10596C00A0E7636B4744A7639F427CD3302302229A
:10597C00E2542E260298A15DFFF710FA002800D001
:10598C0065E7A368A26BA15D934202D9207BC00995
:10599C0020D19B1AA36203223023E2545C4A2034A8
:1059AC001300C1CCC1C32078187002980D23FFF7E7
:1059BC00A5F94DE730230422029DE254023BE15C41
:1059CC002800FFF7CFF92F232800E15CFFF7CAF975
:1059DC0000203DE70298FFF7C5F938E78BB22100AC
:1059EC004B4A607B0F31FBF77FF9002800DAE0E1CE
:1059FC00A26B636B9A42B1D3B8E7E38A002B00D158
:105A0C00D5E15BBA99B2A068FDF732FE0104090C2E
:105A1C002269237D120A1B06134340461EBAFDF76A
:105A2C0027FE3B4B0A0003938119607B0097FBF721
:105A3C0041F9002800DA02E287423ED93F1A0028D9
:105A4C0000D039E22F23029AE35C07A8027003719D
:105A5C0007220023002143714270876001F02AFE67
:105A6C003023E65C1EE7FFF773FD4B46E65C19E757
:105A7C00E28A002B00D18AE1207BC00900D163E2CD
:105A8C00002A00D024E201202C22A054022004324F
:105A9C00A054A3620C32A25C002A0BD11F4A002036
:105AAC00A2873E22A054002B00D162E7237BDB09A6
:105ABC0000D150E72E23E15C4DE7A36B626BFB1822
:105ACC00A363934200D351E7154A002A06D0607BAA
