:020000041000EA
:1000000000B5324B212058609868022188439860DF
:10001000D860186158612E4B002199600221596106
:100020000121F02299502B49196001219960352056
:1000300000F044F80222904214D00621196600F024
:1000400034F8196E01211966002018661A6600F04E
:100050002CF8196E196E196E052000F02FF8012189
:100060000842F9D1002199601B49196000215960AB
:100070001A491B48016001219960EB211966A021F2
:10008000196600F012F800219960164914480160C1
:100090000121996001BC002800D000471248134993
:1000A000086003C880F30888084703B5996A0420EC
:1000B0000142FBD001200142F8D103BD02B5186610
:1000C0001866FFF7F2FF186E186E02BD00000240BE
:1000D000000000180000070000035F00212200005C
:1000E000F4000018222000A00001001008ED00E03C
:1000F00000000000000000000000000074B24E7A12
:1001000000200420F7010010C3010010C5010010F9
:10011000C1010010C1010010C1010010C101001097
:10012000C1010010C1010010C1010010C701001081
:10013000C1010010C1010010C9010010CB01001065
:10014000CD010010CD010010CD010010CD01001037
:10015000CD010010CD010010CD010010CD01001027
:10016000CD010010CD010010CD010010CD01001017
:10017000CD010010CD010010CD010010CD01001007
:10018000CD010010CD010010CD010010CD010010F7
:10019000CD010010CD010010CD010010CD010010E7
:1001A000CD010010CD010010CD010010CD010010D7
:1001B000CD010010CD010010CD010010CD010010C7
:1001C00000BE00BE00BE00BE00BE00BE00F051F882
:1001D000103800BEF2EB8871E0020010FC02001043
:1001E0003402001090A31AE700202449086006C8D2
:1001F00081F30888104722480068002835D10DA4F3
:100200000ECC002902D000F012F8F9E71D491E4A71
:10021000002000E001C19142FCD11C4988471C49E3
:1002200088471C49884700BEFDE701C901C29A42C0
:10023000FBD37047FC020010C0000020D8740020DF
:1002400014770010E0740020B87D0020EC7F0010CF
:100250000000042000000420EC7F001000100420A7
:10026000001004200000000070470B4800F018F850
:100270000047EFF30580C0B27047000008ED00E0D2
:10028000000000D0B87D002050B7002005320020CB
:1002900051050020F53200205756000000000000F4
:1002A00001B40248844601BC604700BF8938002081
:1002B00006005250ABB36053847A002006005250BF
:1002C000861C0302947A0020060052505422A29DFC
:1002D0009C7A002005005250DE65F468EC7F001027
:1002E000D4020010C8020010BC020010A87A00203E
:0C02F000B0020010B47A0020C07A002098
:1002FC00F8B5C04610B5064C2378002B07D1054B3A
:10030C00002B02D0044800E000BF0123237010BD75
:10031C00B880002000000000D8740020044B10B5F9
:10032C00002B03D00349044800E000BF10BDC046B9
:10033C0000000000BC800020D874002030B583B0D1
:10034C0003F072FB0122214B214C1A60636C012BD0
:10035C00FCD103331F4D009301211F4A1F4803F0AA
:10036C00FFFA1F4803F054FB2B00012201210095DA
:10037C00052003F00DF92B00002200210095072029
:10038C0003F006F92B00002200210095082003F051
:10039C00FFF8042003F0E6F8062003F0E3F8092048
:1003AC0003F0E0F8002003F0DDF8012003F0DAF8A8
:1003BC00022003F0D7F8032003F0D4F8A023094A55
:1003CC00E250094A0433E25003B030BD3CB0004067
:1003DC0000800040006CDC0200C0C62D00C0024052
:1003EC00008002401F9D89F007ECFFFFD9221D4BB6
:1003FC0010B5DB68D200013B9BB2934200D310BD19
:10040C00EFF3108472B601220421022001F00CFFDC
:10041C00A0220821520513680B431360F022124BE3
:10042C009A61124BEF3A1A60114A536C012BFCD1B2
:10043C00104803F0EDFA104803F0EAFA03F008FB59
:10044C000022094B08219A61A02252051368022050
:10045C008B431360043901F007FFFFF76FFF84F340
:10046C001088CCE700C00440004000403CB0004085
:10047C00008000400080024000C00240F0B5D6462B
:10048C0046464F46C0B5324C324EA54482463000EB
:10049C0001F082FA304907A801F062FC00280ED165
:1004AC002E4B002799462E4B01AC9846210007A8ED
:1004BC0001F0B2FC002826D007A801F093FC5346AB
:1004CC00002B18D001225146300001F0B9F9002858
:1004DC0011D1802301215B001293300012AB4942F1
:1004EC00336201F073FA8923DB009D44E0BCBA4609
:1004FC00B146A846F0BD01223000194901F0A0F91F
:10050C000028F0D1E5E70D236B444946180007F0AD
:10051C0077F8002802D0237ADB0609D5637A002B02
:10052C00C4D107A801F05EFC5346002BCAD1D0E71A
:10053C000D237800C0198000C0196B447D1C190074
:10054C00404407F0A1F8FF2DEBD02F00E6E7C046A2
:10055C00B8FBFFFF6CA40020E0780020707800202E
:10056C0000A60020F0B557464E464546DE467D4B6C
:10057C00E0B5186899460300012508339D407A4F71
:10058C0085B03C682A0063681A401D42FAD1860087
:10059C00A619336AD02B39D000D979E0A02B00D121
:1005AC00C6E0C2000F210432A82B5BD1E368D34014
:1005BC000B40022BFAD9316A336A0904326A1B02E6
:1005CC00C9188918694C200001F000FA200068490C
:1005DC0001F08CF94B463C68186843001B18DB0093
:1005EC00D033E41880235B011C43802380221B063C
:1005FC00236023605F4B1A6005B0F0BCBB46B2466B
:10060C00A946A046F0BDD82B00D0A1E05A4B082536
:10061C009B46564B564E9846D0231B069A465B4635
:10062C001B683278043312069B001A513100404685
:10063C0001F05CF93C68236B1D42FCD0534601224F
:10064C005B689B081A42EAD043465B694046991E98
:10065C0001F0BCF93100404601F048F94B463C68CA
:10066C001868BAE7002B73D1434AD02512680121D0
:10067C0004329200135108222D06236B1A42FCD02F
:10068C006B689B081942A8D1236B1A42F5D0F7E787
:10069C00F02B24D0F12BB6D10021009201A8092215
:1006AC0003F046FD0D216A46694463682B42FCD178
:1006BC00336ADBB21370002B02D001329142F4D1B9
:1006CC006846FFF7DBFE002800D183E7D0258024A5
:1006DC002D06A404FF20EC6102F096FBFAE7274EEE
:1006EC003378002B30D00822234B1F680437BD0011
:1006FC0031000B781B062B51236B1A42FCD00131B5
:10070C004B1E1B78002BF4D1737B0D36002BEFD1D5
:10071C00FF23D02508220121BF001B063B512D06CB
:10072C00236B1A42FCD06B689B081942F8D054E733
:10073C000E22C0000430E368C3401A42FBD0316A79
:10074C00336A0902C9183DE70B4B1F680437DFE712
:10075C00D02580242D06A404FF20EC6102F054FB6C
:10076C00FAE7C0462CB7002010B700206CA400207C
:10077C004DB7002080E200E030B7002000A600203A
:10078C00F0B5DE464E4645465746E0B5002291B0E0
:10079C000121042001F020FD00220121022001F0A2
:1007AC001BFD00220121032001F016FD022001F0A7
:1007BC007DFD182001F07AFD192001F077FDD02481
:1007CC00802324065B04A36280239B046362A02520
:1007DC0004230126A3626D0506F07AFD2B68B34352
:1007EC002B6063681B0E1E4200D038E1EFF31084BF
:1007FC0072B604213200022001F016FD08232A688B
:10080C001343F0222B60994B9A61994B994A1E60C5
:10081C00536C012BFCD1984803F0FAF8974803F07D
:10082C00F7F803F015F90022904B08219A61A022E9
:10083C005205136802208B431360043901F014FD38
:10084C00FFF77CFD84F3108806F066FE1F211D2047
:10085C0001F0AAFC002200211D2001F0BDFC0021AA
:10086C001D2001F00FFDC023854C9B012268162032
:10087C005340E022D2011340824A83491360834BD8
:10088C001A68834B5340834A1340834A136001F028
:10089C00FDFD01230121A3611620994601F0DCFD29
:1008AC00FF21162001F0F6FE08227C4B7C482361C8
:1008BC007C4B01211A607C4B9846186006F020FD99
:1008CC0043467A4D01212860186806F019FD784BD3
:1008DC000600186043461C682B6803209A46754B2B
:1008EC00E5186B1E9D410635290001F05DFC2900C1
:1008FC00042001F059FC2900022001F055FC0121D3
:10090C00032001F081FC6C49200006F017FD8023C8
:10091C005B02049303000B33C2011B031343674AAE
:10092C0007001340C022D20513430593C0231B03B9
:10093C00069380230022DB05934651462000079343
:10094C0000920323043206F05DFD059A5C4907987A
:10095C000A4013008022920413435A4A05935A4BBF
:10096C00024004AD134307932A89584B5146134355
:10097C0020003A0006932B0006F086FD5449200017
:10098C0006F0DCFC8022F82352025B0208920993E9
:10099C00C023050058461B030A9308AB190010220C
:1009AC000B900CA803F0CAFB2B1DEA011B0313438D
:1009BC000D930CAB1900102208A803F0BFFB5B468B
:1009CC000422310020000093033306F01BFD80222B
:1009DC00099B3B4992040B40134309933D4A0B9BE3
:1009EC0031001A40C0235B0213430B933A4A0A9B13
:1009FC0020001A400393394B13430A932A0008AB87
:100A0C0006F042FD51464B468B40226807201343AB
:100A1C0023604B46B340226831491343236001F0F5
:100A2C0035FD0121072001F017FD43461A6880238C
:100A3C002D32FF329B011343022200211A60072042
:100A4C0001F028FE06F096F901222649264800F00E
:100A5C00C7FE002806D030BF04F02EFAFBE7FFF7E4
:100A6C006DFCF1E62148FFF709FDF4E7004000407A
:100A7C003CB00040008000400080024000C00240BA
:100A8C0000C0044000D00440BD01002008C0044058
:100A9C00050000010F00000F08D0044000FFFF000C
:100AAC000000205000E0044010B7002030B70020B8
:100ABC002CB700200000E0AFBC780020FFFFFF9FA8
:100ACC00FFFFFFE0E00300FC030C120000001050DD
:100ADC00A8780020FF7FF0FFFFFF0A3E0000818016
:100AEC0035030020887A0020D48000207C780020F8
:100AFC0010B5002901D0002A00D110BD0D220449E7
:100B0C00002005F035FA002005F0F8F9F5E7C046AD
:100B1C0088780020F0B5C64600B5204B06009846F4
:100B2C001F4D204F82B004E000232B60002005F005
:100B3C00E5F9002005F09EF9002825D06B4601222E
:100B4C003000D91D05F0A2F9002825D06B46DC79C0
:100B5C006B460122DC71D91D002005F009FA2B68C7
:100B6C005A1CFB5C2A60A342DED1052ADED1414629
:100B7C000D48043A00F034FE002809D006220B4937
:100B8C00002005F0F5F9CFE702B080BCB846F0BD07
:100B9C000748FFF773FCF1E7FF24D9E7887A0020B8
:100BAC0008B70020A0780020D4800020987800207E
:100BBC007C78002070B515001C000F4B86B01A68AD
:100BCC00080002921B7902A90B710C4B04AE1A6837
:100BDC0004921B7904223371094B019303F0AEFA92
:100BEC0031000422280003F0A9FA0322200001A9F5
:100BFC0003F0A4FA06B070BDDC780020E478002085
:100C0C00312E3000074B10B51B7804000120002B4F
:100C1C0000D110BD00233A220221200005F04AFC2D
:100C2C000020F6E74BB70020EA235B000B60802323
:100C3C005B0113807047C046002B01D0002A01D005
:100C4C0001207047014B01321A70F9E74BB70020B5
:100C5C001800054B10B59C46614409038918029A8B
:100C6C0003F06CFA029810BD20000100F8B51500D5
:100C7C001E00EFF3108772B620310C03002A08D047
:100C8C003100069A281906F069FE87F31088069839
:100C9C00F8BD80212000490106F020FEF0E7C04697
:100CAC0010B50A781C0000231E2A04D0202205212E
:100CBC0005F000FC2300180010BDC046004870472A
:100CCC0008790020004870471C79002070B5002579
:100CDC000400280006F0DCFA1B4BDD60002C25D04C
:100CEC00052C2FD8A400E658300006F0D5FCC0B275
:100CFC00011C1F2815D8C9B2002820D00023134D81
:100D0C00AA1CF05C0133DCB210800232A142F8D88C
:100D1C00C0230131C9B249009B0019432800298026
:100D2C0070BD1F21C9B20028E8D108E0074D196831
:100D3C000222A81C03F002FAC1218900EEE7044943
:100D4C00024DEBE70020EBE7C47C00207092002002
:100D5C0002030000002070470020704710B51400FB
:100D6C001A03044B08009C466444210303F0E6F983
:100D7C00002010BD2000010070B501260023764232
:100D8C0004000D00C37046624B1C35D1234BE25C52
:100D9C00E3185B781B021343214A934237D1282373
:100DAC00E35CEB2B04D01833DBB20220012B22D8EE
:100DBC005E23E35C462B08D11933E35C412B04D151
:100DCC001F33E35C0020542B15D07A23E35C462BB5
:100DDC0022D13533E35C412B1ED13B33E35C542BE6
:100DEC001AD12933E35C332B16D14B33E05C323808
:100DFC00431E9841400070BD0A0021000123407839
:100E0C002831FFF7ABFF002803D16562BEE7032052
:100E1C00F1E704206662EEE70220ECE72602000010
:100E2C0055AA0000F0B5DE4657464E46454600230F
:100E3C00E0B5046883B00B60002C00D13AE12200CD
:100E4C0002E03A2B00D132E113780132202BF8D892
:100E5C00CB4B1C68002C00D12EE123780C60002BAE
:100E6C0008D06078FFF776FF01231D000540034290
:100E7C0000D1BCE0002300202380FFF76DFF01238D
:100E8C001D000540034200D0B0E000212000FFF718
:100E9C0073FF022800D1B2E0042800D10EE1002734
:100EAC00012800D901E122003332117853788022D5
:100EBC001B0252010B43934200D0F6E03E23E25C4E
:100ECC000133E65C360216430DD14E220D33E65C3F
:100EDC000133E35CA25C1B023343120413434F2225
:100EEC00A65C36061E4338232661E25C531EA270B4
:100EFC00012B00D9D9E03523E15C8B460B1E6181B7
:100F0C0000D1D2E0013B194200D0CEE023003933AE
:100F1C0019785B781B020B43984623815B0600D043
:100F2C00C3E021003B314B7808781B0203430DD101
:100F3C0049214833615CE35C090219434A23E35CB1
:100F4C001B0419434B23E35C1B060B433621605CEB
:100F5C000131615C09020143894600D1A5E072436D
:100F6C001100009242468A46D2094A4492449A455C
:100F7C0000D99AE052469B1A18005946019302F088
:100F8C00CDFD019B5B4500D28FE07E4B984200D992
:100F9C008BE07D4B984200D9BAE07C4B984200D94B
:100FAC00DAE04A464146D219831C67615744E36034
:100FBC00A2612762002900D177E0009958008C4685
:100FCC006244E2610122C01840081340C01801239A
:100FDC006F4A94466044000B864266D36D4A237078
:100FEC00138801339BB21380E38000E003252800B3
:100FFC0003B0F0BCBB46B246A946A046F0BDF523F3
:10100C0000225B00E35C9046002B0DD0F7235B00C5
:10101C00E0184178E25C837809020A431B0413430D
:10102C00C27812061A439046FD235B00E35C00264F
:10103C00002B0CD0FF235B00E118E65C4B788A7820
:10104C001B023343CE781204134336061E43524B15
:10105C000027E35C002B0BD0504BE118E75C4B787E
:10106C008A781B023B43CF78120413433F061F437D
:10107C0000224B4B9146E35C002B0CD0494BE01803
:10108C004178E25C837809020A431B041343C2785B
:10109C0012061A4391464346002B22D1002E28D12A
:1010AC00002F2ED14B46002B10D10D259FE7A31CF2
:1010BC009A4205D00B259AE70C2598E7012596E76F
:1010CC0023780B25302B92D10260C1E649462000D3
:1010DC00FFF752FE012851D90125042800D186E7DB
:1010EC00E3E741462000FFF747FE0128D6D84746E4
:1010FC00D9E631002000FFF73FFE0128D0D8370099
:10110C00D1E639002000FFF737FE0128CAD8CAE61D
:10111C004B46DB19A3615223676102305744E060F0
:10112C002762E25C230052335B781B021343424676
:10113C001343BAD155225423A25CE35C12021A4326
:10114C005623E35C80001B041A435723E35C1B0605
:10115C001343E36103233BE74B464246DB19023062
:10116C0067615744E060A3612762002A9DD0009A12
:10117C00400094466344E361022329E74F4692E61C
:10118C00FC900020F5FFFF0FF5FF0000F50F0000AD
:10119C00FF0F000044B700200A0200000E020000FE
:1011AC001A0200001E020000F0B5C64605000C0035
:1011BC00012000B5012909D9EB68994206D22B7898
:1011CC00022B3ED0032B22D0012B02D080BCB84680
:1011DC00F0BD4E087618A969370B6A6A7F189742DA
:1011EC0059D133051B0DEB18771C28331E783B0B9C
:1011FC009846884490455AD13F053F0DED19283546
:10120C00287800023043E3075DD50009DEE7AB69BF
:10121C008E0A9C466B6A66449E4230D128352F005C
:10122C002C49A4000C40385D3C196278A37812025A
:10123C000243E0781B041A43000610430001000926
:10124C00C4E7AB69CE0A9C466B6A66449E420AD1DF
:10125C0028352F00204964000C403B5D3C19607818
:10126C0000021843B2E72F0028370123320039005F
:10127C006878FFF773FD002828D16E62EAE72F002B
:10128C0028370123320039006878FFF767FD002802
:10129C001CD16E62C4E729003A0068782831FFF748
:1012AC005DFD002812D13A00A9696F6299E7290007
:1012BC000123424668782831FFF750FD002805D1FC
:1012CC0043466B6298E70005000D7FE70120404222
:1012DC0068627BE7FC0F0000FE0F0000F8B50368A6
:1012EC0057464E46DE464546994600238468E0B58F
:1012FC0007000361002C37D14B461B78022B2ED8EC
:10130C004B461B89002B28D04B46DB69BB617C61AB
:10131C00002B22D04B4600262833FB613000F0BC5A
:10132C00BB46B246A946A046F8BDAB69E60A9C4648
:10133C006B6A66449E4271D128239846A844604A41
:10134C00630013404246D25C43445C78240214434D
:10135C00012C02D9FB68A3420ED80226DEE74B46CD
:10136C00DB69002BCCD01C004B465A89002A00D0DC
:10137C0091E03B004F469946012CEED94B461D6837
:10138C00EB689C42E9D22E78022ECED0032E29D0C7
:10139C00012EE2D163089846A04443461B0B9A46A3
:1013AC00A9696A6A8A44924552D1012343449A46F8
:1013BC0043461B051B0DEB1828331B789B465346E5
:1013CC001B0B98468844904550D153465A461B05F2
:1013DC001B0DED1828352B781B021343E20767D53C
:1013EC001C09B5E7AB69A60A9C466B6A66449E422B
:1013FC0021D128239846A844324BA10019404346DA
:10140C005C5C41444A788B7812022243CC781B04F2
:10141C001A43240614432401240999E728239846E7
:10142C00A844320041466878273BFFF797FC002818
:10143C0028D16E6283E728239846A844320041469F
:10144C006878273BFFF78AFC00281BD16E62D3E734
:10145C0029000123524668782831FFF77FFC0028C9
:10146C0015D153465246A9696B629EE729000123A8
:10147C00424668782831FFF771FC002807D14346B3
:10148C006B62A2E701235B4201266B6246E70123F4
:10149C005B426B6242E74946C968A31E02398B4224
:1014AC0009D253434A46126A94466344BB612EE701
:1014BC001B051C0D4CE700230226BB617C612DE74C
:1014CC00FE0F0000FC0F0000F0B5DE4657464E46FE
:1014DC00454604000B00E0B5026887B004921A7808
:1014EC002F2A01D05C2A01D10133F8E71A000393AB
:1014FC000023A36013781F2B00D857E120239C46B0
:10150C00A4446346059320239B465B465A46E3540A
:10151C002123E2540133E2540133E2540133E25407
:10152C000133E2540133E2540133E2540133E25407
:10153C000133E2540133E254039A1378202B0DD972
:10154C007F210025082601208C46571E2F2B3CD0CE
:10155C005C2B3AD02E2B1AD0AE4207D8062007B0FF
:10156C00F0BCBB46B246A946A046F0BD5AB2002A12
:10157C0003DA62461340984AD35C2222974903E06F
:10158C004A780131002A16D09342F9D1E6E70B2EA6
:10159C00E4D008250B2601303B5C202BD6D8039BCE
:1015AC009C468444634603935B46E35CE52B00D185
:1015BC0003E104231CE01A00613A192A01D8203BEC
:1015CC00DBB2059A53550135E5E7039B9C46604415
:1015DC0003782F2B01D05C2B01D10130F8E703905D
:1015EC00002DBBD05B46E25C0023E52A00D1EEE087
:1015FC002B256355236820009A46FFF76FFE0028C1
:10160C0000D0DFE028235344019308239846A669B1
:10161C0053465B6AB34210D0534632005878019956
:10162C000123FFF79BFB002805D0012352465B42A8
:10163C000120536293E753465E62E3691A78002AED
:10164C0011D03F2240464546D97A0A40A271DA7A37
:10165C001040154221D0802325699B0320359D42E3
:10166C0004D30023A3612B23E35C8DE0A669002E39
:10167C00F9D02B051A0D91462768002B08D161690A
:10168C000136A66100295ED13A896B09934278D262
:10169C0028374F442561E761BAE75A46A55C1A78AA
:1016AC009542D8D121225D78A25C9542D3D12222D9
:1016BC009D78A25C9542CED12322DD78A25C954226
:1016CC00C9D124221D79A25C9542C4D125225D7911
:1016DC00A25C9542BFD126229D79A25C9542BAD1DB
:1016EC002722DD79A25C9542B5D128221D7AA25C15
:1016FC009542B0D129225D7AA25C9542ABD19A7AFF
:10170C002A23E35C9A42A6D12B23E35C5B0700D52A
:10171C0025E7CB063CD5236904991A050B00120D5D
:10172C0028339B18DA7E987E09781202024303292B
:10173C0001D0A260E9E6187D5B7D1B0203431B040C
:10174C001A43A260E1E62A0B10007B89013B18408A
:10175C0002901A429CD13800FFF726FD01281ED9B1
:10176C00431C17D0FB6898421BD26061023B0238C5
:10177C00984211D23B6A7E899C4646436644A661D8
:10178C0086E72B23A161E35C04205B0700D5E6E62A
:10179C000520E4E60120E2E60026A66178E70220B7
:1017AC00DDE6029BA3612B23E35CEDE72B23802278
:1017BC002000E254FFF792FDD1E605235A46A354CC
:1017CC00013B15E7635D042800D0C8E6DCE7594609
:1017DC00E03A62540CE7C0469079002080790020F2
:1017EC0010B582B00C1E0190009121D0080001E0D0
:1017FC003A2B19D003780130202BF9D80F490B68FC
:10180C00002B01D000201870019B002B01D0002070
:10181C00187000200B60002A01D102B010BD684680
:10182C0001A9FFF7FFFAF8E723780234A04201D0B0
:10183C000B20F2E70B20302BEFD1DFE7FC900020E0
:10184C00F0B58FB0040015000191002848D002A912
:10185C0001A8FFF7E7FA002803D0002323600FB09C
:10186C00F0BD029B019903A80393FFF72DFE0028FE
:10187C00F3D16A460C212B235218D35C7F2B31D821
:10188C0010226B4610009B7C18401A422CD10A9BEC
:10189C00029EDA7E997E12020A433178032907D11F
:1018AC00197D8C466746597D0902394309040A4360
:1018BC00A2605A7F1F7F997F1202DB7F17430904B6
:1018CC0039431B060B43E360002326602362F28836
:1018DC006374A28001222A402274E3616361BEE733
:1018EC000920BCE70620B8E70420B6E7F8B5574650
:1018FC004546DE464E464269E0B5130504000D0030
:10190C001F0D002B10D0C069224B9C466044000375
:10191C00C35D00202B70636901336361F0BCBB466F
:10192C00B246A946A046F8BD0368100B01009946C3
:10193C005B899846013B19408A4618420AD0A06937
:10194C0043460238434318004B461B6A5344C018A5
:10195C00E061D9E7002A15D0236A41469B461E1D3B
:10196C0002F0DCF85B465B68002B05D10DE0083615
:10197C00C01A3368002B08D09842F8D27368C0188C
:10198C00A061DDE7A068A061DAE70223022063749E
:10199C00C4E7C0462030010010B5041E09D003680E
:1019AC00002B06D01A78002A03D08188DA8891425D
:1019BC0001D0092010BD5878FFF7CCF901220300A3
:1019CC00100018401A42F4D12060F3E7F0B54E46EF
:1019DC00DE4657464546E0B504000E0087B00028A9
:1019EC0009D00368002B06D01A78002A03D081880E
:1019FC00DA88914209D009239846404607B0F0BCDA
:101A0C00BB46B246A946A046F0BD5878FFF7A2F9EE
:101A1C00C307F0D423689B46637C9846002BECD11B
:101A2C00256A002D3ED0731C00D18AE0E768B742CE
:101A3C0000D937006761002FDFD07B1E1B0B994646
:101A4C005B465B89484619009A4602F067F86B685A
:101A5C002E1D002B06D1FEE00836C01A3368002B71
:101A6C0000D1F8E08342F7D97368C3189A1EA361BA
:101A7C005B46DB68023B934200D8B0E053465A43C6
:101A8C005B461B6AD218002A00D1A8E03F05B4D0EF
:101A9C0053464946013B1940E3698A189342ACD03E
:101AAC00E261AAE7E768B74200D93700002265690E
:101ABC006261002FA1D05B465E893603002D1CD0DD
:101ACC003100781E02F02AF8013D814631002800D1
:101ADC0002F024F8814510D3A26973422B40110007
:101AEC006361FD1A002A0FD11B0500D185E7E3695C
:101AFC00934200D181E7E2617FE7A168A1610029EF
:101B0C0000D17AE73D000023AE4200D3D9E058461D
:101B1C005F460AE0012862D9FB6883425FD9A06165
:101B2C00AE4200D30EE163692068F3186361FFF7DE
:101B3C003BFBAD1B0100431CECD1012398466374A5
:101B4C005BE72B0004CB9A46A36803920193002B0E
:101B5C0078D00223029343465E46A04605930024A8
:101B6C00019D0134012D02D9F3689D4204D34446F2
:101B7C0002239846637440E73378022B4ED0032B34
:101B8C0031D0012BF3D16B089946A9444B46B1696E
:101B9C001F0B726A7F18974260D14B465F1C1B0566
:101BAC001B0DF31828331B7804933B0B994689447F
:101BBC00914577D13F053F0DF61928363378049AB5
:101BCC001B021343EA0779D51B09012BCFD9013529
:101BDC009D4200D093E042461D001668C1E70223E7
:101BEC009846637409E7B369AF0A9C462823994663
:101BFC00736A6744B1449F424AD1574BA9001940BC
:101C0C004B465B5C494448788A7800021843CB7891
:101C1C00120410431B0603431B01D5E7B369EF0AFB
:101C2C009C46736A67449F4225D128239946B14448
:101C3C004A4B6A001A404B46995C4A4453781B0243
:101C4C000B43C2E7022302932B6093426CD8002310
:101C5C0052461360D1E60222524208E731000123BA
:101C6C003A0070782831FFF779F8002842D13A0011
:101C7C00B169776291E728239946B1443A00494605
:101C8C007078273BFFF76AF8002833D17762CFE7EB
:101C9C0001233A0049467078FFF760F8002829D1F3
:101CAC007762AAE7310001234A4670782831FFF7A2
:101CBC0055F800281ED14B4673627BE71B051B0DA4
:101CCC0083E73B0028056361020D002800D10BE778
:101CDC005A46D2680239023A914280D25A46528907
:101CEC0051435A46126A8918002900D177E72A0B0A
:101CFC005218F9E601235B42444673621DE7029ACF
:101D0C00039902320292914211D3524651460198E4
:101D1C00146048605946C9680832994216D99246EF
:101D2C004246019316681AE71123984665E65A460F
:101D3C00D2689A42F4D8059B44469846256A029B81
:101D4C00039A81E76369BB46EB18BBE7059B4446E6
:101D5C0092469846F2E7C046FC0F0000FE0F0000CA
:101D6C0030B585B0041E019130D003A901A8FFF74E
:101D7C0059F8002803D00023236005B030BD039B25
:101D8C00200001992360FFF79FFB00281AD12B2319
:101D9C00E35C7F2B23D8A379DB0615D5E169039A85
:101DAC00CB7E887E1B0203431078032810D0A360DF
:101DBC00D3882000A380FFF791FA042804D00028D0
:101DCC00DBD0D8E70428D6D10520D4E70920D4E706
:101DDC000D7D497D0902294309040B43E7E7039A6A
:101DEC00E6E7C04610B5041E09D00368002B06D0E8
:101DFC001A78002A03D08188DA88914201D0092010
:101E0C0010BD5878FEF7A6FF012203001000184001
:101E1C001A42F4D12060F3E7F0B5DE4657464E4641
:101E2C004546E0B585B0041E029109D00368002B2D
:101E3C0006D01A78002A03D08188DA88914209D01A
:101E4C0009231800019305B0F0BCBB46B246A94665
:101E5C00A046F0BD5878FEF77DFF01231A00024022
:101E6C0001920342ECD1029B002B00D171E123685B
:101E7C00A5699846002D00D170E1282343449B4668
:101E8C003F239A4643465B6AAB4214D043462A0032
:101E9C00587859460123FEF761FF002809D0012329
:101EAC0042465B4253620023A36101331800019345
:101EBC00C9E743465D62E3691A78002A00D14DE117
:101ECC005146DB7A0B40A371E52A07D02E2A05D0A8
:101EDC000F2B03D020229343082B5BD123691F00C7
:101EEC009946802320379B039F420BD30023029AF1
:101EFC00A361537280239B039F4201D30023A361F0
:101F0C000198A0E7A569002DF0D03B0526681A0DB5
:101F1C00002B13D161690135A561002913D13289D8
:101F2C007B09934231D228362761E661002DA9D175
:101F3C004F460023029A40375372DBE72836B61817
:101F4C002761E6619EE73A0B10007389013B18404C
:101F5C0003901A42E7D13000FFF726F9012800D888
:101F6C000DE1431C00D101E1F368984200D309E173
:101F7C006061023B0238984200D3FAE0336A7589FB
:101F8C009C4645436544A561CDE7029BA161019840
:101F9C00597258E700232769A169029A20375372B6
:101FAC000029A7D0E3691A78202A00D1F1E0052A8C
:101FBC0000D1E0320298427201205D780200202D9F
:101FCC0007D0052D00D1E035029E421CB44660447A
:101FDC0045729D781000202D07D0052D00D1E035DD
:101FEC00029E501CB44662445572DD780200202DCE
:101FFC0007D0052D00D1E035029E421CB44660444A
:10200C0045721D791000202D07D0052D00D1E0352B
:10201C00029E501CB446624455725D790200202D1C
:10202C0007D0052D00D1E035029E421CB446604419
:10203C0045729D791000202D07D0052D00D1E0357B
:10204C00029E501CB44662445572DD790200202D6C
:10205C0007D0052D00D1E035029E421CB4466044E9
:10206C0045721D7A202D0CD0052D00D1E0352E2087
:10207C00029EB6187072029E501CB4466044023226
:10208C0045725D7A1000202D07D0052D00D1E0356A
:10209C00029E501CB446624455729D7A0200202D5B
:1020AC0007D0052D00D1E035029E421CB446604499
:1020BC004572029E0020B44662445072DA7A327243
:1020CC005D7F1A7F987F2D021543DA7F000405434C
:1020DC0012062A433260DA7D987D12020243F280A6
:1020EC001A7E5B7E25681B021343B38080239B03FF
:1020FC009F4200D302E73B051E0D002B23D101317B
:10210C00A161616900292CD03A0B10006B89013B4D
:10211C00184080461A4216D12800FFF745F80128CE
:10212C003DD9431C37D0EB68984200D3E6E660619A
:10213C00023B0238984204D26B8958432B6A98466A
:10214C0080444346A3612835AD1901982761E561A8
:10215C0079E62000FFF7C2F8019074E62769203772
:10216C00C4E62A897B099342EDD3C7E60123019388
:10217C00C4E6039B2836A3612761E661D8E60223F7
:10218C000193BBE6039B2769029AA3612037537224
:10219C00B0E6002011E701231800019353E6022357
:1021AC00180001934FE6C046094A8300944640222A
:1021BC00634410B51C68C0006240C02414408022E7
:1021CC00520113431C60034B9C466044416010BD9C
:1021DC0004C00140004001400A4B80009C4604238F
:1021EC006044002901D00C230821002A00D10B00E7
:1021FC00026853400C221A4080235B011843026092
:10220C007047C04604C00140064B80009C466044A9
:10221C0003684B400121194080235B011843016086
:10222C007047C04604C00140C30810B50400072025
:10223C002040800081401800094C3C308000015146
:10224C0008489B0084466344002A04D080229201F3
:10225C001343196010BDC022920113431960F9E7B2
:10226C0000400140604101400200C30807201040BB
:10227C0080008140024A3C339B0099507047C04615
:10228C0000400140084B80009C466044002905D06A
:10229C0080239B011843402303607047C0239B019C
:1022AC00184340230360F8E704C001400123D02207
:1022BC008340120693629361094A8300944640223C
:1022CC0063441968C0004A40C02111408022520169
:1022DC0013431960034B9C460523604443607047CD
:1022EC0004C0014000400140EFF3108072B6034A75
:1022FC001368002BFCD0BFF35F8F70472C0100D00C
:10230C00BFF35F8F0022024B1A6080F31088704776
:10231C002C0100D070B5EFF3108C72B60D4D2B68FC
:10232C00002BFCD0BFF35F8F0724CB08C618C05C12
:10233C0001230C40A3401C000440034207D103437B
:10234C003370BFF35F8F2C608CF3108870BD10005E
:10235C0001F0EAF82C0100D0F8B54746CE46884685
:10236C0080B5EFF3108C72B6214D2C68002CFCD08C
:10237C00BFF35F8F9A422CD8D4080727055D061946
:10238C0001241740BC402C421FD00721012789464D
:10239C0009E0D408055D06194C4639001440A140EB
:1023AC000C00294211D001329342F2D2012040425A
:1023BC00BFF35F8F00220E4B1A608CF3108800283D
:1023CC000FDBC0BCB946B046F8BD2C4310003470CE
:1023DC00EEE7BFF35F8F00232B608CF31088012096
:1023EC0040424346002BECD0089801F09DF8C046C3
:1023FC002C0100D0024B18688007C00F7047C046F4
:10240C0000C006400021044B044ABFF35F8F02C397
:10241C009342FAD17047C046000100D0800100D031
:10242C00044A1078431CDBB2172B00D9102313700D
:10243C007047C046DC7C002000B5054B83B0010022
:10244C00009318221F230348FFF786FF03B000BD3B
:10245C00107A002090A5002001238340002904D08D
:10246C00034A1360034A13607047034A1360FBE787
:10247C0080E200E000E100E080E100E0024B10307F
:10248C009B688000C058704700ED00E070B50D00EF
:10249C00EFF3108672B60F4A1368002BFCD0BFF313
:1024AC005F8F0D4B10309B6884001B590B4A934275
:1024BC0003D09D4201D001F04FF8074B9B681D5192
:1024CC00BFF35F8FBFF35F8F0022024B1A6086F35E
:1024DC00108870BD240100D000ED00E0CD0100108B
:1024EC00F0B5DE4657464E464546E0B50C0083B087
:1024FC00EFF3108A72B65A4A1368002BFCD0BFF364
:10250C005F8F1022914681444A46564B96009B6839
:10251C009D59554B98469D4205D0A54216D0534F18
:10252C00EB1B2F2B14D94F4B9B689D51BFF35F8F27
:10253C00BFF35F8F00224A4B1A608AF3108803B0F6
:10254C00F0BCBB46B246A946A046F0BD1D00EAE76A
:10255C00012383409B465A46454B1B681A40009208
:10256C005A46444B1A60BFF35F8F05F0C5F80190D3
:10257C00002803D0814501D000F0EEFF01232A0092
:10258C009A4393689C4208D15FE04B005B189B0018
:10259C00FB189968A14211D01A0006215156002946
:1025AC00F3DA009B002B05D05A46334B1A60304BA4
:1025BC001A60B8E75A462F4B1A60B4E706215956F1
:1025CC00002921DB4A00501880003C188046A06886
:1025DC009860E079D871062020569871002824DB89
:1025EC00A488F81A6405241544440019E024000555
:1025FC00400D2402204398805218204B9200BF18A3
:10260C001A781970BA71CCE70199002910D1FF31F1
:10261C0091711B49918019490A789A71194ADB1BEF
:10262C005B415A43120D0A70BBE7BD200002E2E782
:10263C00154A1649D21A083A5002400D01439980A6
:10264C00134952080A43DA80ABE7062151561300AE
:10265C000029B7DA019A002AEAD14546DBE7C046E1
:10266C00240100D000ED00E0CD010010E07C002042
:10267C0000E100E080E100E080E200E04CB70020E7
:10268C0000BDFFFFAAAA00001A7D002000F0FFFF8A
:10269C0000F8FFFF032310B50400074A18409446C6
:1026AC00C0009C43FC3383406444226881409A43BD
:1026BC0013000B43236010BD00E400E0F8B50125C6
:1026CC000400054305F018F8EFF3108C72B6214A9C
:1026DC001368002BFCD0BFF35F8F1F4E2100B7682F
:1026EC001E4A1F4B891A49414B431B0D59B283009B
:1026FC00F858A8421CD00623D3568B421CD0122368
:10270C00D3568B4222D01E23D3568B4220D02A2361
:10271C00D35603208B4210D0124B1A781970A27129
:10272C00BFF35F8F00220B4B1A608CF31088F8BD3F
:10273C00B2680D48D050EFE7002043001B189B00F7
:10274C00D218FF239371094B9380E5E70120F4E73E
:10275C000220F2E7240100D000ED00E0E07C002034
:10276C00AAAA00004CB70020CD01001000BDFFFF4D
:10277C00054B064A1360064A136053609360D3609E
:10278C0013615361936170478080808000E400E0A6
:10279C0004E400E0024B9C466144890001607047F0
:1027AC004000003483680B4810B584466144624491
:1027BC00090112019A18591854684B6801209C425F
:1027CC0001D802D00020C0B210BD12680B689A422A
:1027DC00F9D8F7E7FFFFFF0F0A4B1968EFF31080EA
:1027EC0072B60A68002AFCD0BFF35F8F1B68BFF378
:1027FC005F8F00221A6080F3108840BF00200021F8
:10280C007047C04628B70020F8B557464E46454697
:10281C00DE46E0B599460CAB1C780DAB1B78060078
:10282C0090469A460768002C11D1BC7B002C42D0F4
:10283C0065003B682D19033D59194B78BB73002B70
:10284C0000D1FB7300238B704B700B7004E06500A0
:10285C003B682D19033D5919B2682A4B94464246E0
:10286C00E3181B0163441A604A465A600A9A9A603C
:10287C000B9ADA6000238B704B700B707B7B9B4642
:10288C00002B2BD022005946B8687B6898473A68D1
:10289C00002816D05B4658465B005B445519033B39
:1028AC00A870D118D35C002B00D06B705B460C70F9
:1028BC007B73A34513D0F0BCBB46B246A946A046D9
:1028CC00F8BD5B465B005B44033BD3189C7051190D
:1028DC00525D002A00D05A705B460B707C734246E6
:1028EC004B46307D00F01AFB051E06D05346002BDC
:1028FC0003D12100306800F033FD0E9B002BDAD0A1
:10290C001D70D8E7FFFFFF0FF0B5DE464E46574669
:10291C0045460023E0B58DB00A936B4B8200D3582B
:10292C000B90994600239B464B46079300F062FAA6
:10293C00079C06000F006268EFF3108572B61368EF
:10294C00002BFCD022000794BFF35F8F2468637BBD
:10295C009946002B67D092685C4B90464B441B0108
:10296C00984443461A685B6810001900801BB941F3
:10297C0000295FDD0B9800F0D1FA00230026984661
:10298C0000279A46079C6368BFF35F8F5A461A600C
:10299C0085F310885346002B08D10028C6D10DB002
:1029AC00F0BCBB46B246A946A046F0BD0A9B4146C8
:1029BC0018024B461843D047089009916268EFF310
:1029CC00108572B61368002BFCD00794BFF35F8F91
:1029DC000899099A002A48DB114303D0079B1B690D
:1029EC00002B5DD1079B1B68D97B002907D04A00BF
:1029FC00521819688C4649466244033A51704A464B
:102A0C00DA734B46079A013BD168CA5C0132CA544F
:102A1C005B46079A13615368BFF35F8F5A461A607F
:102A2C0085F3108882E700230026984600279A46F3
:102A3C000020A7E7002901D100289BD1002120000C
:102A4C0000F010FC43461E685F689B68079A9A4624
:102A5C004346DB689846D3684B44013B1B780A938A
:102A6C001B020343136100208CE72369002BB9D0B0
:102A7C0033003C005B1A94411A002300A74219D87A
:102A8C009F421BD059460491012103914946029162
:102A9C0041460191514607980091FFF7B5FEB7E703
:102AAC0000F0A8F9089A099B06000F0092197B41C7
:102ABC009942E5D901225242D317E3E79642E1D974
:102ACC0001225242D317DDE714B70020FFFFFF0F9E
:102ADC00F8B557464E464546DE46E0B5404D814674
:102AEC008A466A68EFF3108872B61368002BFCD024
:102AFC00BFF35F8F2E68B47B002C39D0670033682E
:102B0C003F19033FDB195A78B273002A00D1F273D4
:102B1C00A968344A8C464946A218120162441160D5
:102B2C0051465160304991600021D16099705970C3
:102B3C001970737B9B46002B35D022001900B068AE
:102B4C00736898473268002820D05B4658465B0073
:102B5C005B44D719033BB870D118D35C002B00D061
:102B6C007B705B460C7073735C451DD0002626E0B1
:102B7C006B68BFF35F8F1C6088F3108801204042A4
:102B8C00F0BCBB46B246A946A046F8BD5B465B000E
:102B9C005B44033BD3189C70D119D25D002A00D042
:102BAC005A705B460B7074734A465346287D00F08E
:102BBC00B5F9061EDAD02100286800F0D1FBEB68CD
:102BCC001B19013B19786B68BFF35F8F00221A60E9
:102BDC0088F310880020002ED2D108022043CFE7C2
:102BEC00287D0020FFFFFF0FA925002010B5124CF7
:102BFC006368002B04D00A211048FFF7CBFD10BDF1
:102C0C0023000F4A1021206800F04AFA032000F03C
:102C1C00E5F8032000F0F2F903200A4900F038F936
:102C2C00FFF7FEFB084B9C46032360442375074BC0
:102C3C0080006060DC60DEE7287D002028B7002083
:102C4C0075250020D92600204000003414B7002040
:102C5C00F8B5CE46474680B506000C00FFF738FFA6
:102C6C0000280CDC2D4B0020596A8C4203D89B6A3F
:102C7C000130B34245D3C0BCB946B046F8BD20BF05
:102C8C00274D6A68EFF3108772B61368002BFCD0DF
:102C9C00BFF35F8F2B68C1B29C465B7B8B4235D0F8
:102CAC00FF2303405A0091466246126899449046AD
:102CBC004A464244033A9278002A1DD0EA68000A38
:102CCC0090464344013B1B78C0B2834221D06B68D1
:102CDC00BFF35F8F00221A6087F310880F4A002021
:102CEC00536A9C42C7D8926A0130B242C3D2E01AEE
:102CFC00421E9041C0B2BEE72B699842E7D12A61CF
:102D0C00E5E7601A431E9841C0B2B4E7FF230340C5
:102D1C00D4E7604600F024FBD9E7C04600400540EC
:102D2C00287D0020F0B5D6464F464646C0B5EFF399
:102D3C0005833F22134018001038EFF3108C72B645
:102D4C00204D2A68002AFCD0BFF35F8F01221100AE
:102D5C0081401D4C884661631C4917000E788A46D9
:102D6C003100C1400F400A4209D1BFF35F8F2F6081
:102D7C008CF31088E0BCBA46B146A846F0BD1449A5
:102D8C008200646A51588C420FD3124BD25843467E
:102D9C009E4353461E70BFF35F8F00232B608CF352
:102DAC001088002AE6D09047E4E70B4A9B00904637
:102DBC0043441A681A60BFF35F8F00232B608CF3B7
:102DCC001088D7E7280100D0004005404EB70020FE
:102DDC0034B700205CA40020D03F054010B50100A2
:102DEC00024A0348FFF796FA10BDC0462C7A002021
:102DFC0049B70020034B596A0A00986A596A8A42FB
:102E0C00FAD17047004005401F4B70B598420BD863
:102E1C004201121A920010181C4AC000916A936A5F
:102E2C005B1A9842FBD870BDFA2200239200002155
:102E3C0001F014F904000D00144A536A1900966A43
:102E4C00536A8B42FAD13000190024184D41AB4221
:102E5C0013D9012301246442E5175B420B494A6AEA
:102E6C009342FCD89A42DED1084A02E0516A8B4266
:102E7C00D9D1916A8C42F9D8D5E7AB4201D02B005D
:102E8C00ECE7A642E5D8FAE79BC4200000400540D9
:102E9C0070B504000D00EFF3108672B61A4A136871
:102EAC00002BFCD0BFF35F8F002D1BD02000FFF751
:102EBC00E5FA164981420AD02000FFF7E7FA012112
:102ECC002000FFF7C9FA0123A340114A1360114BEC
:102EDC00A400E550BFF35F8F00220B4B1A6086F302
:102EEC00108870BD0B4BA200D5500122A2400A499C
:102EFC0020000B7893430B700449FFF7F1FA002183
:102F0C002000FFF7A9FAE5E7280100D0F52A0020F8
:102F1C00386005405CA400204EB70020F0B54F4649
:102F2C00D6464646C0B507002F4C616A0D00A66A0E
:102F3C00616AA942FAD18B4208D805D00120E0BCC5
:102F4C00BA46B146A846F0BDB242F7D9EFF3108AA3
:102F5C0072B6264801680029FCD0BFF35F8F0125AB
:102F6C00BD402349204C8846097889462943C9B27B
:102F7C008C46414660460870391D1E4889006563C1
:102F8C000A51B9000B50216A0020294219D0616AFC
:102F9C000800A66A616A8142FAD18B4219D801D124
:102FAC00B24216D8CC451DD00F4B1F201D625D635D
:102FBC0001230740BB40104A1E38136043464A4663
:102FCC001A70BFF35F8F0022084B1A608AF31088C7
:102FDC00B5E70020BFF35F8F0022044B1A608AF321
:102FEC001088ACE70120ECE700400540280100D038
:102FFC004EB7002034B7002080E200E0EFF3108CD5
:10300C0072B60A490B68002BFCD0BFF35F8F01230B
:10301C008340074A0748136202789A430270BFF351
:10302C005F8F00230B608CF310887047280100D051
:10303C00004005404EB7002070B505001400160086
:10304C00002915D00C00002A12D080686B689847B4
:10305C00296800280ED073009B196200033B1219DB
:10306C00CB18033A9C7088188A5C002A15D106701C
:10307C00200070BD63001B197200033B9219CB1822
:10308C00033A9E7088188A5C002A02D104703400BE
:10309C00EEE75A7004703400EAE75A700670E7E7FE
:1030AC0030B583600023CCB24373013304734260A8
:1030BC008373C4730D000068012C06D9421C0133C4
:1030CC00DBB2137003329C42F9D1FF2129404B0033
:1030DC005918002340180338437030BDF8B5CE465C
:1030EC00474606000C0080B5002907D04D00036848
:1030FC006D18033D5A195778002F04D12000C0BC1D
:10310C00B946B046F8BD7900C9190339884643441D
:10311C005978894600215970517073683A00210022
:10312C00806898473368002814D042469A189470E7
:10313C0059195B5D002B00D053700F702700494666
:10314C003000FFF7CBFF390002003000FFF774FFAF
:10315C000400D3E7424641465D19AF709A185B5C98
:10316C00002B00D06B701470E9E7C046F0B55746E1
:10317C004546DE464E46E0B50D006B0001685B1916
:10318C00DF1E0400C85D83B00192CA1900284CD020
:10319C0043001B18033BCB185E78B446002E16D1A7
:1031AC00019E002E3ED0E67B002E04D073009B19AE
:1031BC00CB18033B5D70E57300282FD100235370AF
:1031CC0003B0F0BCBB46B246A946A046F0BD7200A7
:1031DC006244033A89184A78904600224A70914614
:1031EC005A70010032002000FFF726FF434682464A
:1031FC00002B07D05B0021684344033BCB185A7863
:10320C00002A16D1424651462000FFF715FF2168CF
:10321C00019BCA19002BC6D10028CFD043001B1824
:10322C00033BCB1800219970C8E7019B002BBAD146
:10323C00C4E750008018033809184878834648467C
:10324C004870587041462000FFF7F6FE59468046FC
:10325C002000FFF743FF414602002000FFF7ECFE81
:10326C008046CFE7F0B557464546DE464E46E0B5BC
:10327C0083B00191457B04006B0000685B19DF1E75
:10328C00C15DC21900294ED04B005B18033BC3181B
:10329C005E78B446002E18D1019E002E40D0E67BFD
:1032AC00002E04D073009B19C318033B5D70E573AB
:1032BC00002931D1002328005370617303B0F0BC96
:1032CC00BB46B246A946A046F0BD72006244033A22
:1032DC008018427890460022427091465A70200025
:1032EC003200FFF7A9FE43468246002B07D05B0055
:1032FC0021684344033BCB185A78002A17D1424625
:10330C0051462000FFF798FE019B01002068C2196E
:10331C00002BC4D10029CDD04B005B18033BC31844
:10332C0000209870C6E7019B002BB8D1C2E7500073
:10333C0080180338091848788346484648705870F6
:10334C0041462000FFF778FE594680462000FFF7E3
:10335C00C5FE414602002000FFF76EFE8046CEE718
:10336C0070B5040000292CD0437B8B422ED005680D
:10337C0048004018033828188278002A21D05300BE
:10338C009B18033BEA5CEE188A4202D11BE0002A30
:10339C0008D053009B18033BEB185A788A42F6D19D
:1033AC0042785A7000230122837043702000FFF78B
:1033BC00DDFE617B02002000FFF73EFE6073012002
:1033CC0000E0002070BD43783370EBE70122190058
:1033DC00FFF7CCFE60730120F4E7C04610B5040083
:1033EC00FFF71EF801002000FFF7D4F9FF2323712B
:1033FC00BFF35F8F10BDC04610B50400FFF710F887
:10340C0001002000FFF7C6F9FF23A380BFF35F8FF5
:10341C0010BDC04610B504000120FFF70DF8044B99
:10342C009C46604480002060BFF35F8F10BDC04697
:10343C00400000342C4B2D4A70B51A602C4A2D4B91
:10344C002D491A6014008B689C43FBD12B4D2C4EDC
:10345C00B54208D2013E761BB60808CD984723002A
:10346C000134B342F9D100F01DF9264A214B1A6000
:10347C00214A9368DB43DB01DD09002BF9D14022A3
:10348C00214B224C224E9A675A671A67DA66B4426D
:10349C0008D223682000002B20D00834FFF7ACFFA3
:1034AC00B442F6D31B4E1C4CC022A168300000F075
:1034BC0045FEA660FEF7A6FFFFF75AF9FFF796FB4D
:1034CC00164C174EB44208D2013E361BB60808CC37
:1034DC0098472B0001359E42F9D170BD0834FFF797
:1034EC007DFFB442D5D3DDE700E00040BFCDFBFE4D
:1034FC00FE7F3C0000F0004000C00040A47D002096
:10350C00B47D0020FFFFFF0100F001409C7D0020F6
:10351C00A47D00200000002000ED00E0B47D002020
:10352C00B87D002000BEFDE70FB400B5084883B09D
:10353C0000F03AFF049B002B07D005A9180001915D
:10354C0000F09AFA034800F02FFF00BEFDE7C046DA
:10355C00507A00209478002010B50148FFF7E4FF62
:10356C00607A0020084A43009446C0221B189B0036
:10357C00634492011343802212011A600022034B10
:10358C008000C2507047C0460080004094A50020C7
:10359C00F0B54546DE4657464E46E0B583B001923F
:1035AC000C9A050088469A4200D974E01A0E93468C
:1035BC001E023000002359460C9A00F0F1FA374BEA
:1035CC006C009C466419A400644463680700834241
:1035DC0000D260602B1FDBB29946012B35D9C0237A
:1035EC0080229B01234312011A602D4BAD005959C7
:1035FC009A46002905D0586900F090FA013001383C
:10360C00FDD1019A236852015340E0221A408023D5
:10361C005B0123431A604A46012A2FD9802380225A
:10362C009B01234312011A60300000233A005946D3
:10363C00676000F0B5FA53465851012003B0F0BC56
:10364C00BB46B246A946A046F0BD4346012BC6D1A7
:10365C00C02303229B0123431A60023AA3681A4237
:10366C00FCD0019A236852015A40E0231A4080236F
:10367C005B0123431A600A4AAD0092464246216818
:10368C00514003220A401A60012243469A40A36823
:10369C001A42FCD0C2E70020D0E7C04600800040B0
:1036AC0094A5002030B50C2083B000F0B5F9FEF7DE
:1036BC00A1FE00280ED0944B944A1A605A609A606E
:1036CC00DA601A615A619A61DA611A62904A5A6236
:1036DC0003B030BD8F4CA06700F0A6F901228E4BD1
:1036EC001A60636C012BFCD103228C4B1A60894A43
:1036FC00936B012BFCD101330121894A894800933A
:10370C00043300F02DF90523874A009301218748E3
:10371C0000F026F9864B5A68FF2A02D88022520004
:10372C005A608022784C7D4B21691201804D1A60C1
:10373C00002905D0606900F0F1F901300138FDD1A4
:10374C00E0217B4B02201A681140802252012A434F
:10375C0011601968484003210140116004219A68E6
:10376C001142FCD08022802192012A430901116070
:10377C00802252005A606F4B23616F4B5968FF29AE
:10378C0000D85A600321644A6B4B116002399A6865
:10379C001142FCD0E0201A681040802252011A43DA
:1037AC0010601868484003210140022011606249F2
:1037BC008A681042FCD080229201134380221201AD
:1037CC001A6080225D4B52004A6063615C4B596801
:1037DC00FF2900D85A6080225A4BE1691201584DDA
:1037EC001A60002905D0606900F098F901300138A1
:1037FC00FDD1E02252490B681A4080235B012B4318
:10380C001A60802380229B012B4312011A608022B4
:10381C003E4B52004A60E3614B4B5968FF2900D87C
:10382C005A608022494B216A1201474D1A600029C7
:10383C0005D0606900F072F901300138FDD1E02249
:10384C0041490B681A4080235B012B431A6080238B
:10385C0080229B012B4312011A60802380225B0083
:10386C004B602A4BD2022362394B5968914200D2E9
:10387C005A608022374B616A1201354D1A6000295B
:10388C0005D0606900F04AF901300138FDD1E02221
:10389C002F490B681A4080235B012B431A6080234D
:1038AC0080229B012B4312011A608023DB024B60A8
:1038BC00174B6362284B5A68FF2A02D880225200A9
:1038CC005A608022254BA1691201234D1A600029F0
:1038DC0005D0606900F022F901300138FDD1E022F9
:1038EC001D490B681A4080235B012B431A6080230F
:1038FC0080229B012B4312011A6080235B004B60DA
:10390C000E4BA361E4E6C04694A50020006CDC02DB
:10391C001BB70000008000403CB0004030B00040BD
:10392C00002F685900800240008C864700C002407E
:10393C0030800040001BB7003C80004040597307AA
:10394C005480004054B000406080004060B00040A3
:10395C006C8000406CB000404880004048B0004093
:10396C00F0B5C646040000B50C2090461F000E00B2
:10397C0000F0D4F84101091A8D01691AC90009181F
:10398C008901404600F0CAF8069B3F041A032368DD
:10399C001743002B22DB1A4B1A4DE21853425A41A3
:1039AC0080235B019C461203174B62441A60174B31
:1039BC001A601100AB689943FBD1C022231D920100
:1039CC001A4321232660A06013602368002BFCDAC5
:1039DC000823E760136080BCB846F0BD3F23226823
:1039EC001340B342D7D1A3681B051B0D8342D2D120
:1039FC00EE22E368D2021340BB42CCD1EBE7C046C7
:103A0C000040FDBF00C0004000E0004000F000405E
:103A1C002D2343607047C0468023024A9B0003431A
:103A2C00D362704700800540AA23064A1B0113602D
:103A3C002F230549D360054B19605368002BFCDA22
:103A4C007047C0460040024000B0FA0000600240DF
:103A5C00034A044B93605368002BFCDA7047C04652
:103A6C0000400240616D6F6310B5002800D110BD9D
:103A7C0000F04AFCFBE7C04610B5094A0300146885
:103A8C0084B0002C08D0012200910648524203A9B0
:103A9C00A047012004B010BD00F086FC0020F9E71F
:103AAC0004B700203938002001480421014B184785
:103ABC00507D0020A9380020142310B5010018886F
:103ACC0004331B88984710BD162310B501001888C5
:103ADC0002331B88984710BDF8B54746CE4680B5D3
:103AEC000F1E19D014239946043304000025012617
:103AFC0098464B461888434621681B88984701C452
:103B0C00431E9841013540420640AF42F1D130008E
:103B1C00C0BCB946B046F8BD0126F8E7114A936F10
:103B2C009B0813D210665166002905D0FFE7FFE70A
:103B3C00FFE7516F106F704704B5002801D00020CB
:103B4C00C04303F005FD002104BDC046F0B5146E62
:103B5C00556E576F166FFFF7E5FF1466556657677E
:103B6C001667F0BD000000D094464E4A926F920842
:103B7C00624601D230E0C046F0B54A4EB56F6D08D2
:103B8C00FCD3346E756E776F366F00F025F8944663
:103B9C00444A14665566576716676246F0BDC046C0
:103BAC009446404A926F9208624601D258E0C04651
:103BBC00F0B53C4EB56F6D08FCD3346E756E776FF7
:103BCC00366F00F04DF89446364A146655665767C2
:103BDC0016676246F0BDC046002B24DB11D00029CD
:103BEC003EDA00B5C943404200D1013100F038F84B
:103BFC00C943404200D10131DB43524200D1013371
:103C0C0000BD002AEBD1002801D1002905D00020ED
:103C1C00C90FC90701D1C043410800B503F098FC96
:103C2C000022002300BD00B500290ADBDB43524211
:103C3C0000D1013300F014F8C943404200D10131E6
:103C4C0000BDC943404200D10131DB43524200D197
:103C5C00013300F005F8DB43524200D1013300BDC3
:103C6C00002923D1002B18D1002A0CD0BC460D4FB3
:103C7C0038667A6600210023FFE7FFE7FFE77A6FDB
:103C8C00386F67467047002801D00748010000B51F
:103C9C0003F05EFC0022002300BD02000B0000209C
:103CAC0000217047000000D0FFFFFFFF002B00D069
:103CBC00BFE0130C28D1002AE7D080B4114F39662D
:103CCC007A66FFE7FFE730B4040C7B6F396F1B0497
:103CDC0023433B667A66FFE7FFE7FFE7C04684B203
:103CEC007B6F3D6F1B0423433B667A66FFE7FFE760
:103CFC00C04600232C042D0C7A6F386F00196941D3
:103D0C00B0BC7047000000D0F0B594460025140EEE
:103D1C0001D112020835140F01D112010435940F90
:103D2C0001D192000235D40F01D152000135D40BD0
:103D3C000134254F7C66254C3C660E0C93B2FFE794
:103D4C00FFE7FFE73C6F6643360C7703BE467343D1
:103D5C00DF0B5B04C01AB941130C7343DB18C91A8F
:103D6C00CE086643360CB64493B273431F0F1B0147
:103D7C00C01AB941130C73431F0B1B05C01AB94170
:103D8C00860D8F023E436643360C092D24DB520A06
:103D9C007243801A7703460A6643360C16235B1B64
:103DAC00DE40DF40BF1964466643821B7046043513
:103DBC0006330100D940A840C01900D30131A242FA
:103DCC0006D20023F0BD0000000000D0FFFFFFFF73
:103DDC00121B0130F3D3F1E709277F1BFE40644629
:103DEC00A2B27243801A00D20139220C7243130C16
:103DFC001204821A99410B007046043513370100E6
:103E0C00F940A840801900D30131002B02D1A24205
:103E1C000AD2F0BD013000D30131121BFAD2013BA2
:103E2C00F8D1A24200D2F0BD013000D30131121BF7
:103E3C00F7E7F0B51C0C00D080E00CB400251C0A90
:103E4C0004D11B02160E3343120208351C0B04D18D
:103E5C001B01160F3343120104359C0B04D19B003C
:103E6C00960F334392000235DC0B02D192185B4162
:103E7C0001351C00971864410134464F7C66464C52
:103E8C003C660E0CFFE7FFE7FFE7C0463C6F66435E
:103E9C00360C7703BE4697B27743C01B00D201396C
:103EAC00C01B00D201399FB27743C91BC91B170C29
:103EBC0077437E04FF0B801BB941CE086643360C5A
:103ECC000C2D33DBB644120B1F053A431B0B97B278
:103EDC007743C01B00D201399FB27743C91B170C23
:103EEC0077433E043F0C801BB941860D8F023E4345
:103EFC00664329277F1BFE400C3D7746AF40BF1918
:103F0C0030BCA2B2ABB272437343801A9941220CFB
:103F1C007243130C1204801A994102000B000137F2
:103F2C00001BA941F9D2781E0021F0BD0C277F1B84
:103F3C00FE4077467F0BAF40FF19E0E700245D1C85
:103F4C0007D0144F7D663966FFE7FFE7FFE7FFE711
:103F5C003C6F95B29EB265436643401BB141150C54
:103F6C001E0C6543664336042F0C3E432D04401B48
:103F7C00B141994204D202000B0020000021F0BD97
:103F8C0001D19042F7D3801A994101349942F2D36E
:103F9C00F6E70000000000D0FFFFFFFF132370B511
:103FAC001D78012D15D010DD1C48FFF78DFD1C4C24
:103FBC0001008022200000F0C1F8022D06D0194823
:103FCC00FFF77AFD184B186070BD154C174BA364A6
:103FDC00F5E7164B124C23606360A360E36023612A
:103FEC006361A361E36123626362A362E36223639F
:103FFC006363A363E36323646364A364E36423657F
:10400C006365A365E36523666366A366E36623675E
:10401C006367A367E367A364D1E7C046534400001A
:10402C00B87E00204C33000024B70020013E002055
:10403C0007B5604601880A0A0230DF2AFAD1C9B2F4
:10404C00820804D3028840880004104300E0006812
:10405C00014A5050039007BDB87E002051434343A2
:10406C00C9188C46110C83B24B4310B4040C614339
:10407C0092B280B2504362431C041B0C001910BC5A
:10408C0059411304120CC01851416144704700008F
:10409C00132310B512481C78FFF716FD0100012CF4
:1040AC000AD003DD80220F4800F048F80E48FFF7D5
:1040BC0003FD0E4B186010BD0A4C5422200000F07A
:1040CC003DF80B4B6365A365E36523666366A366E6
:1040DC00E36623676367A367E3672362E361E5E74E
:1040EC0053460000B87F00204C33000024B700205A
:1040FC00C53E002007B5604601880A0A0230DF2A57
:10410C00FAD1C9B2820804D3028840880004104353
:10411C0000E00068014A5050039007BDB87F0020B2
:10412C0001480421014B1847607D0020A93800206C
:10413C00014B1B6818470000607D0020014B5B6839
:10414C0018470000607D0020030010B50800110026
:10415C001B68984710BDC046F0B546464F46D6463C
:10416C00C0B5437C80460E001700002B46D0002AB9
:10417C003FDD4B1E9946244B0125002400209A4616
:10418C000DE04B461B5D0D3B5A425341325DDBB299
:10419C000A2A0BD02B00013401359F421ADD002C6A
:1041AC00EFD14346325D1B7C0A2AF3D1002BF1D1AF
:1041BC00A04204DA4346211A1B683018984743463C
:1041CC0050461B6802219847013428002B0001350A
:1041DC009F42E4DC874204DD4346391A1B683018E1
:1041EC009847F619013E33780D3B5A4253414246EB
:1041FC001374E0BCBA46B146A846F0BD0368110082
:10420C0030009847F5E7C046CC7A0020F0B5574609
:10421C004E464546DE461C00D023E0B51B061F6803
:10422C00344B83B006000D00180001A991469A4644
:10423C0003F092FA8046002808D1019B7FB29F427E
:10424C0004D0504603F064FA012398466B1C03D14A
:10425C00300003F021FA0500002C27D1264F274B04
:10426C001C68002C18D04B46002B21D1244B9946AE
:10427C0002E0E468002C0FD02368002BF9D04B46E9
:10428C001B68002B01D0A342F3D120002A0031007F
:10429C00B847E468002CEFD14346002B25D103B07E
:1042AC00F0BCBB46B246A946A046F0BD154FD6E7BA
:1042BC00134B99460A239B4602E0E468002CEBD092
:1042CC002368002BF9D04B461B68002B01D0A3426E
:1042DC00F3D12A0031002000B8475A466B46200023
:1042EC001A7101A90122B847E7E7504603F0A6FA74
:1042FC00D5E7C0469C7D0020293F0020FCA500206E
:10430C0000B30020193F0020F0B5CE46474680B5DB
:10431C0083B06B46DE1CD02330701B061C681F4B11
:10432C00804601A91800994603F016FA071E20D002
:10433C001B4B1C68002C28D01A4D02E0E468002CA2
:10434C000FD02368002BF9D02B68002B01D0A3428F
:10435C00F4D1200001223100FFF7FEFEE468002CAE
:10436C00EFD1002F11D1404603B0C0BCB946B046C6
:10437C00F0BD019B64B29C420BD0484603F0C8F9D7
:10438C00074B01271C68002CD6D1484603F056FA7F
:10439C00E9E7034B1C68002CCED1E4E79C7D0020A0
:1043AC00FCA5002000B3002070B5040003F074F9E4
:1043BC0000230100050001222000FFF727FF084B16
:1043CC001C68002C06D06368002B05D09847E46865
:1043DC00002CF8D1280070BDE468002CF3D1F9E76B
:1043EC00FCA50020F0B5982357464546DE464E46C0
:1043FC006C4AE0B5D75880253C006D02883B9A4644
:10440C0083B02C402F420FD001222321664B002079
:10441C005A54DA70654901F0B5FA8022644B920265
:10442C001A65644B2C009A46FB0617D480235B015B
:10443C001F4245D18023DB011F4200D088E080233E
:10444C001B021F4200D091E0BC4200D0A5E003B09B
:10445C00F0BCBB46B246A946A046F0BD514B9B6D85
:10446C009846002B27D0524B00249B46012399469B
:10447C0043460126B8461F0004E001347600E4B23E
:10448C00202C17D03742F8D05B469E654B4665080A
:10449C00A3436D00ED18444B6D019C466544280008
:1044AC0000F08AFB00286CD10134B743E4B27600EB
:1044BC00002FE5D1474680235B0154461F42B9D0FB
:1044CC001C430023374A00211360384A3A48936052
:1044DC00D3603A4A9360D360394A9360D360394AC7
:1044EC009360D360384A9360D360384A9360D3604A
:1044FC00374A9360D360374A9360D360364A9360EF
:10450C00D360364A9360D360354A9360D360354AA2
:10451C009360D360344A9360D360344A9360D36021
:10452C00334A9360D360F0229200FFF701FE314BC7
:10453C00314A00211A600020012201F0F9F9802291
:10454C001B4B12031A658023DB011F4200D176E757
:10455C000122042100201C4301F05AF91022144BB3
:10456C001A6580231B021F4200D16DE70122052131
:10457C0000201C4301F04CF980220D4B12011A65EE
:10458C0062E74B46AA8AA97800200093002301F029
:10459C0021FA280000F04CFA86E7210017487940F0
:1045AC00FEF7C2FF0000115004B3002000001050B1
:1045BC00003011501000010044B3002008001050CE
:1045CC0010001050180010502000105028001050EF
:1045DC00300010503800105040001050480010505F
:1045EC0050001050580010506000105068001050CF
:1045FC00700010500CB7002080011050D07A0020B1
:10460C0010B501210520FDF727FF10BD10B50022C4
:10461C000021024800F034FA10BDC04624B300203B
:10462C008022024B5202DA647047C04600201150BF
:10463C00F0B5C64600B5060000F0D4F90C23354D94
:10464C000520AB673449FDF721FF40239846334CD6
:10465C00402200212000FFF76BFD43460127A38376
:10466C00212100232E4A6770A260136063545F31CE
:10467C0061844146A187023963542A4A2A496360FE
:10468C00E260A1620B60E262284A63629360D360CD
:10469C00274A20009360D360264A00219360D360A0
:1046AC00254A40309360D360244A9360D360244AF7
:1046BC009360D360234A9360D360234A9360D360A2
:1046CC00224A9360D360224A9360D360214A93605C
:1046DC00D360214A9360D360204A9360D360204A10
:1046EC009360D3601F4A9360D360F0229200FFF76F
:1046FC001FFD1D4B1D4A30001A6080239B052F6443
:10470C00EB6490231A4AEA50FFF78AFF80BCB84644
:10471C00F0BDC04600001150B541002004B300208C
:10472C0084001050000110508000105000001050F8
:10473C00080010501000105018001050200010509D
:10474C00280010503000105038001050400010500D
:10475C00480010505000105058001050600010507D
:10476C0068001050700010500CB7002080011050E1
:10477C0010D001000B785B0602D14B78052B00D0D2
:10478C0070478A78014B1A60FAE7C0460000115056
:10479C00F0B5CE464746072380B548798E780A791E
:1047AC000340C8787F21800731401B02F409134372
:1047BC004F00820F944691462A4D3A195201AA187D
:1047CC009670012666405670604600269383D6701C
:1047DC009077CA00012C29D0234884468801624472
:1047EC008446AC44604682601660002929D01F4A7A
:1047FC00C9009046414441603F223F3393434A46AF
:10480C00022A00D15B001A493F190A687F01D318AC
:10481C000B60184BED195340EA604A46900618435A
:10482C0080231B0618436B68186010E012488446FE
:10483C00880162448446AC4460468262166000295A
:10484C000AD1002364012D196B600C4BEB60012025
:10485C00C0BCB946B046F0BD064AC90090464144BA
:10486C004162C9E704B300208400105004001050CA
:10487C000CB70020000010508000105000011050A8
:10488C0000231C4A10B59360D3601B4A002193602F
:10489C00D3601A4A1A489360D3601A4A9360D36063
:1048AC00194A9360D360194A9360D360184A936095
:1048BC00D360184A9360D360174A9360D360174A49
:1048CC009360D360164A9360D360164A9360D360AA
:1048DC00154A9360D360154A9360D360144A936071
:1048EC00D360F0229200FFF723FC124B124A1A609D
:1048FC0010BDC046000010500800105010001050A1
:10490C0044B3002018001050200010502800105004
:10491C00300010503800105040001050480010501B
:10492C00500010505800105060001050680010508B
:10493C00700010500CB700208001105010B57F2073
:10494C000C0020404000E409110000191A00034B30
:10495C004001C01800F094F8012010BD04B30020F1
:10496C007F22130010B50B400A420BD0C9098022DC
:10497C00580040180649400140181201002100F06F
:10498C005DF810BD02220348C909521A8266EEE78F
:10499C0004B30020002011507F22100010B50840F5
:1049AC000A4200D110BD0023C90940004018044937
:1049BC004001081800220349C37000F03FF8F1E7EA
:1049CC0004B30020FFF7FFFF7F21C309034A9B00BC
:1049DC00014010B59A580248FEF7A6FD707D0020E4
:1049EC00E47A002080220D4B520410B51A600C4B57
:1049FC000C491A6010008B689843FBD10A4C9C221E
:104A0C0000212000FFF794FB80220021520107486F
:104A1C00FFF78EFB0923636710BDC04600E0004022
:104A2C0000F0004000C00040000011500000105089
:104A3C0000230374438283828361704710B58368BB
:104A4C00002901D01C682140002A11D08024E400E8
:104A5C00114322420CD01A6822420BD1074A0A4059
:104A6C001A60FFE7FFE7FFE7FFE7FFE7FFE7836871
:104A7C00196010BD8078FFF7A7FFC046FFFBFFFF52
:104A8C00F0B5C646002300B5838201330374436836
:104A9C0004001E68838B81611F1C934200D9171C74
:104AAC008025BFB2D21B93B2E278ED0063823D4306
:104ABC00002A02D09025AD013D4301204240E27016
:104ACC006278002A51D0002B1DD1A023DB011D439D
:104ADC00354B1B6C354B33408026B6051E43636843
:104AEC00A2681E6013685B055AD4314B2B401360CF
:104AFC00FFE7FFE7FFE7FFE7FFE7FFE7A3681D60BE
:104B0C0080BCB846F0BD802252011543264A126C77
:104B1C00920703D4A278D209012ADBD1A28B111CF3
:104B2C009A4200D9191C80278AB2FF009B1A904622
:104B3C001743E2789BB26382002A03D09027414648
:104B4C00BF010F4301214A40E2706278002A19D05C
:104B5C00002B02D18023DB011F43164B3F04334053
:104B6C00A026F6053D431E43B9E73A00E068FFF77F
:104B7C00E5FAA3699C46802367441B021D43A76189
:104B8C00638AA0E7E0684246A1694030FFF7D6FA95
:104B9C00A3694344A36180231B021F43638AD7E7A5
:104BAC00A078FFF711FFC04600001150FFFFFFAFC8
:104BBC00FFFBFFFFFFFFFFDFF0B5C64600B5067C2D
:104BCC000400002E00D1D3E083681A681D68437876
:104BDC00AD05AD0D002B51D1838AEB189BB28382AE
:104BEC00A18B8D4207D20023638263681B6830005F
:104BFC0080BCB846F0BD62681268520002D58D4286
:104C0C0000D175E0638A002BF1D062681F1C166816
:104C1C008B4200D90F1C8025BFB2DB1BE2789BB204
:104C2C00ED0063823D43002A02D09025AD013D4347
:104C3C0001214A40E2706278002A68D0002B2AD108
:104C4C00A023DB011D434F4B1B6C4F4B3340802685
:104C5C00B6051E436368A2681E6013685B0500D529
:104C6C008DE04A4B2B401360FFE7FFE7FFE7FFE7C0
:104C7C00FFE7FFE7A36800261D60B8E72A00C168BC
:104C8C008069FFF75BFAA38AA269EB189BB25219F1
:104C9C00A382A261A4E7802252011543394A126C07
:104CAC00920703D4A278D209012ACED1A28B111C6F
:104CBC009A423FD880278AB2FF009B1A904617432E
:104CCC00E2789BB26382002A2FD101214A40E27024
:104CDC006278002A3ED0002B02D18023DB011F43D7
:104CEC002B4B3F043340A026F6053D431E43B1E752
:104CFC00A26815686278AD01AD0D002A1CD1EB18C5
:104D0C00A3828D4200D37DE7002363826FE73A00D4
:104D1C00A169E068FFF712FAA3699C4680236744F7
:104D2C001B021D43A761638A88E790274146BF0198
:104D3C000F43CAE7191CBDE7E1682A004031A0699E
:104D4C00FFF7FCF9A38AA18BEB18A382A3695B196B
:104D5C00A361D6E7E0684246A1694030FFF7EEF95F
:104D6C00A3694344A36180231B021F43638AB2E7F8
:104D7C007F238178074A08481940FEF7D5FBA078B5
:104D8C00FFF722FE00001150FFFFFFAFFFFBFFFFFC
:104D9C00FFFFFFDF707D0020047B0020024B587862
:104DAC00431E9841C0B2704738A30020024B1878BC
:104DBC004007C00F7047C04638A30020014B18783D
:104DCC007047C04647B70020F8B54746CE4680B579
:104DDC002F4F05003B78002B04D00120C0BCB946F6
:104DEC00B046F8BD532200212A48FFF7A1F92A4CFE
:104DFC002000FEF7F3FA294B1C60294C20001C30D4
:104E0C00FEF708FB200002F0FFF9264B264E1C6033
:104E1C00264B9846002B04D0300000E000BF244BFA
:104E2C001860424600243378002A26D0214A904646
:104E3C001F4A9146A34218D8E31ADBB2012B23D8A0
:104E4C005A00D318DB0043441B689847337801346D
:104E5C00E4B25A1CA242EDDA2800FFF7E9FB280065
:104E6C00FFF7CEFB01233B70B7E74A46126863009D
:104E7C0094461B19DB006344E6E701F093F801F05C
:104E8C0025FB3378002BE7D000231B68FFDEC046E0
:104E9C0047B7002038A30020F0A200208CA30020EC
:104EAC00787D002090A3002046B700200000000071
:104EBC0000910020C47B0020F0B5DE4657464E46DC
:104ECC004546E0B58BB001F05BFF00284ED0CB4BD4
:104EDC0007AC9B46CA4B9A465B461D68EA69EFF3E2
:104EEC00108172B61368002BFCD0BFF35F8F296260
:104EFC002800210001F0FCFFEA692B6ABFF35F8FE9
:104F0C000021116083F3108800282FD06378082BC0
:104F1C00E2D8BC4A9B00D3589F466368002BDBD079
:104F2C00A0689847D8E77F222179B54B0A405500F5
:104F3C00C8095B191B18180001263030C578B54319
:104F4C00C570C5780336B543C570002A00D123E17E
:104F5C00AD4ADB7C002A06D0AC4A1278934200D2D0
:104F6C00E0E19B1ADBB2012B00D80AE10BB0F0BCDC
:104F7C00BB46B246A946A046F0BD534601221B785B
:104F8C00012113435246137033235046D25C5546CD
:104F9C008A43C254C25C04208243EA540133EA5C63
:104FAC0027788A43EA54EA5C8243EA54002000F0F2
:104FBC00CFFE602223791A40602A0DD0402A00D1FE
:104FCC000CE1DB06DB0E012B00D172E1022B00D1D0
:104FDC0038E1002B00D127E120780021FFF7C0FC3D
:104FEC0080212078FFF7BCFC76E753461B78DB0763
:104FFC0000D471E7864B002B00D16DE700E000BFB9
:10500C006AE77F4B1A78D20700D465E7814A002AF9
:10501C0000D161E718780007C00F00E000BF5BE724
:10502C007A4D794B00262978002B00D1BAE07A4BC7
:10503C007A4F9846B14216D8721AD2B2012A00D9C8
:10504C00B3E053009B18DB00FB185B69002B14D0FA
:10505C002078984729780136F6B24B1C9E4200DD29
:10506C003AE7B142E8D942461268730094469B195C
:10507C00DB0063445B69002BEAD10136F6B24B1CB2
:10508C00B342D7DA28E7614D5F4A002627782B78A0
:10509C00002A00D18CE0614A90465F4A9146B342A7
:1050AC0067D8F31ADBB2012B00D98AE05A00D31867
:1050BC00DB0043445B68380098472B780136F6B226
:1050CC005A1CB242EBDA4E4D532200212800FFF756
:1050DC002FF81022FF21E81CFFF72AF828002022C5
:1050EC00FF211330FFF724F800F028FE4C4B002B67
:1050FC0000D1F1E600E000BFEEE6444D424A002646
:10510C0027782B78002A5FD0444A9046424A914631
:10511C00B34226D8F31ADBB2012B52D85A00D3185B
:10512C00DB0043445B68380098472B780136F6B2B5
:10513C005A1CB242ECDA324D532200212800FEF701
:10514C00F7FF1022FF21E81CFEF7F2FF28002022B7
:10515C00FF211330FEF7ECFF00F0F0FD2379AB706C
:10516C00BAE64A461268730094469B19DB00634406
:10517C00D8E74A461268730094469B19DB006344D7
:10518C0098E75A00D218254BD2009B181D696279FA
:10519C002078A368A8479FE662792078A36800F07E
:1051AC00EBFD99E6002900D196E600235B69FFDE52
:1051BC00380000F02FFF380001F092F92B78002B0B
:1051CC0081D000235B68FFDE380000F023FF38003D
:1051DC0001F086F92B78002BADD0F2E711480028AE
:1051EC0000D1F9E600F0B4FD0021380008AA00E077
:1051FC0000BF002800D06FE6EEE6C04690A300206A
:10520C0038A30020387B00200000000046B70020A7
:10521C00000000000000000000910020C47B002072
:10522C000000000000000000202A00D110E1002A3C
:10523C0000D0D1E66379092B00D9CDE6BB4A9B009F
:10524C00D3589F467023217A0B4200D0C4E6C8097C
:10525C0084460F330B405B00E818B54D6044C07CAE
:10526C00002D05D0B34D2D78A84275D3401BC0B28C
:10527C00012861D90025002A00D0ADE60222914612
:10528C006679484632008243012A00D1F8E0002EAC
:10529C0000D0A1E6534463443033DB7806AA9B0765
:1052AC00DB0F023213803800022308A900F0E8FC5F
:1052BC0012E6237A0F2B00D98EE69D4A5344DB78F5
:1052CC00002A05D09B4A1278934250D39B1ADBB22A
:1052DC00012B00D980E65D00EB18974DDB00ED1833
:1052EC00E86800F035FD00213800EB6808AA984703
:1052FC00002800D0F0E56022150023791D401A42E9
:10530C0000D069E663790A3B012B00D964E600F012
:10531C001FFD63790A2B00D1DDE0380008A900F0ED
:10532C0097FCD9E55A00D218844BD2001B689B1805
:10533C00002B00D02AE719E6450028187E4DC00046
:10534C002D18002A9AD0E86800F002FD00213800E0
:10535C00EB6808AA98474CE745002818774DC00021
:10536C002D682D18002A89D0002DECD134E6734A13
:10537C005D00EB181568DB00ED18002D00D12BE655
:10538C00AEE76B7806AA023213703800012308A925
:10539C0000F076FCA0E5E088030AC0B20F2B00D920
:1053AC001AE667499A008A58974608A800F0D6FC76
:1053BC003800A179FFF72AF902222B7813432B70BE
:1053CC008AE5E388012B00D006E608222B781343EC
:1053DC0052461370A1E7A27902926B789A4207D0D9
:1053EC006B78002B00D01DE1029B002B00D0ABE0B2
:1053FC005346029A380008A95A7000F029FC6BE554
:10540C00E388012B00D0E7E508222B789343DFE7F4
:10541C000220297806AB9A1C8B068908DB0F014009
:10542C000B433FE7022B00D1DCE1464B002B00D1B4
:10543C00D2E500E000BF0200002A00D1CCE5D37811
:10544C0091781B020B43380008A900F019FCD0E638
:10545C00237A0F2B00D9BFE5354A5344DB78002A59
:10546C0005D0344A127893422BD39B1ADBB2012B12
:10547C0000D9B1E55D00EB182F4DDB00ED1862E7AC
:10548C00E288002A08D15344012E39D01E0066440C
:10549C003036F3789B0727D5002D00D11CE5E86842
:1054AC0000F056FCEB6808AA002138009847002051
:1054BC0000F04EFC34235246D35CDB0700D50BE5E1
:1054CC002BE71E4A5D00EB181568DB00ED18002D6C
:1054DC0000D181E537E706AB9A1C3800012308A9F7
:1054EC00157000F0CDFBF7E43800FFF739FA022213
:1054FC00F37813430122F370F3781343F370CBE783
:10550C0030329046634498444346DB789B07C3D5BE
:10551C003800FFF741FA43464A46DB78934342464C
:10552C00D370D378B343D370B6E7C0465C7B00200E
:10553C000000000046B70020C47B00200091002032
:10554C00847B002000000000581EC0B2FBF7BAFBA1
:10555C00002800D140E543780393022B00D03BE5B3
:10556C000121C2790600931152110B400A4012011D
:10557C005B011343524612782F318A431343524630
:10558C000936B94637001370C37882781B0213436F
:10559C00C3180493049BBB4200D81BE101227B7807
:1055AC0000920B2B04D1FB7800933B78FF187B788F
:1055BC00042B00D010E5049B8C4ADB1B9BB2984655
:1055CC008B4B1B78002A7ED00022002501921EE016
:1055DC00EB1ADBB2012B00D990E05E00F618854B7C
:1055EC00F6009C466644424639004846B3689847E4
:1055FC00082803D94346834200D382E07C4B013513
:10560C001B78EDB25A1C0195AA4200DAE4E4AB42D5
:10561C00DED9794B6E001B6876199C46F600059313
:10562C006644E0E73800FFF72BF9AB786F4A704D12
:10563C00994600262B78002A33D06F4A9046B34205
:10564C0027D8F31ADAB2012A00D9BAE553009B180D
:10565C00684ADB00944663445B68380098472B78B3
:10566C000136F6B25A1CB242E9DA532200215046F6
:10567C00FEF75EFD53461022D81CFF21FEF758FDA5
:10568C002022FF215D48FEF753FD53464A469A708F
:10569C00AAE642461268730094469B19DB006344E9
:1056AC00DAE7380000F0B6FC380000F019FF2B7870
:1056BC00002BDAD085E5524B002B00D18CE400E0B6
:1056CC0000BF0200BBE642463900484600F0B8FC79
:1056DC0045460600082801D9854257D24246390072
:1056EC00484600F007FF45460600082801D98542C8
:1056FC0069D23F4B1B78002B00D16DE400239B68D3
:10570C00FFDEB0460600009B012B4FD0009B002B08
:10571C000FD00023B97805E0D5700133009ADBB2C5
:10572C00934206D25A18D2B25244D078FF28F3D002
:10573C0052E42B0032003900304801F061FB2C4B55
:10574C00019A1B78BF190133934200DB22E743E433
:10575C00FBF7B4FA1223020008A9380000F090FA03
:10576C0047E5284B002B00D136E400E000BF021EB9
:10577C0000D131E43800137808A900F081FA38E53B
:10578C002189FBF7A3FA021EF4D125E4009B012B1F
:10579C0014D00025009B0195AB42BAD139003200E0
:1057AC00124B164801F02CFBBF19F3E64246164B80
:1057BC0092689A42ADD1039B0093AAE70025039B04
:1057CC0001950093A5E7182201259046094B0195F8
:1057DC00984498E70D4B4F46002B00D108E600E0AB
:1057EC0000BF05E6FBF76EFA020025E6000000009C
:1057FC0046B70020C47B0020009100204BA3002062
:10580C000000000000000000115E002000000000FD
:10581C0030B587B005000C000C2200216846FEF75D
:10582C0087FC6B461D705C70042C4FD009D8022C81
:10583C0034D0032C19D13C4B1A78520758D407B0EA
:10584C0030BD052C11D1384B1A78D207F7D504216D
:10585C001A788A431A70354B1C68E269EFF3108191
:10586C0072B61368002B09D1FBE7304B1C68E26958
:10587C00EFF3108172B61368002BFCD0BFF35F8F6F
:10588C0021626946200001F001FCE269236ABFF342
:10589C005F8F0021116083F31088D0E70121224B28
:1058AC001A788A431A701A780331A2431A700022AC
:1058BC005A701A788A431A701C4B1C68E269EFF311
:1058CC00108172B61368002BD8D1FBE7164B1A78EF
:1058DC00D207B4D504211A780A431A70134B1C68EA
:1058EC00E269EFF3108172B61368002BC6D1FBE7A7
:1058FC0004211A7803A88A431A7000210C22FEF79F
:10590C0017FC6B466A461D7305235373074B1C68C3
:10591C00E269EFF3108172B61368002BFCD0BFF371
:10592C005F8F216203A9ADE738A3002090A300206C
:10593C0070B584B001AC06000D000C2200212000D3
:10594C00FEF7F6FB012363700D4B25711D68267065
:10595C00EA69EFF3108372B611680029FCD0BFF32B
:10596C005F8F2B622100280001F090FBEA692B6A03
:10597C00BFF35F8F0021116083F3108804B070BDFA
:10598C0090A30020002330B585B001AD6B8028704A
:10599C000633082202A86B70FEF7D0FB0C4B1C6878
:1059AC00E269EFF3108372B611680029FCD0BFF3E3
:1059BC005F8F23622900200001F068FBE269236AF3
:1059CC00BFF35F8F0021116083F3108805B030BDE9
:1059DC0090A30020F0B5C646804600B584B001AC5B
:1059EC000F0016000021082220001D00FEF7A0FB6E
:1059FC0043462370072363700F4B65711D68277135
:105A0C00A660EA69EFF3108372B611680029FCD026
:105A1C00BFF35F8F2B622100280001F037FBEA698E
:105A2C002B6ABFF35F8F0021116083F3108804B0E1
:105A3C0080BCB846F0BDC04690A30020F0B54646E9
:105A4C00D6464F468046C0B50C0015001E00002AF5
:105A5C002ED070239946184B00279A466378052B55
:105A6C000FD1E1788907890FB1420AD14A46A37850
:105A7C001A4206D153462000997801F085F9002886
:105A8C0005D10020E0BCBA46B146A846F0BD2100C5
:105A9C004046FEF77DFE0028F3D0A378DA09012AF0
:105AAC0008D0089A137023780137E418AF42D5DB7D
:105ABC000120E7E7099AF5E738A30020702270B5BA
:105ACC008B7805000C001A4201D0002070BD064BEB
